TC Reductions
40001500042009RI. WEISS & SONS INC. 2-07 BORDEN AVENUE   000002640004
40001600252009RE J & P LLC          50-02 51 AVENUE      000004268504
40002400012008R40 20 23RD INC       44-64 45 AVENUE      000000115004
"40002700232009RDESIGN CENTER REALTY,5-01 46 ROAD         000000162004"
40002900182009RSLOOP STEPHEN        5-17 47 ROAD         000000225504
"40003200332009RLICQ, LLC            5-14 49 AVENUE       000001856004"
40003200502009RPLASTIC CENTER INC   49-06 VERNON BOULEVAR000000716504
40003800082009R                     53-21 VERNON BOULEVAR000000358504
40004400172009R10-37 49TH AVE CORP  10-37 49 AVENUE      000001046504
40004600392008RNEW YORK CITY INDUSTR10-30 47 AVENUE      000000034004
40004600392009RNEW YORK CITY INDUSTR10-30 47 AVENUE      000000488504
40004800012009RTHE DRAKOTOS FAMILY L46-17 VERNON BOULEVAR000001685004
40004800052009RTHE DRAKOTOS FAMILY L10-11 46 ROAD        000000194004
40004800432009RTHE DRAKOTOS FAMILY L10-10 46 AVENUE      000000614004
40005100362009RBINJAMA REALTY INC   10-06 44 DRIVE       000000200004
40005200282009RALICE WELSH CORP     11-12 44 DRIVE       000002150004
40005200332009RTALL REALTY CO LLC   11-34 44 DRIVE       000000414502
40005400042009RL HUTZLER            45-36 21 STREET      000000402504
40005600492009RDJL RLTY INC         11-48 46 ROAD        000000300504
40006100112008RPLAX ALL INC         47-40 21 STREET      000005450004
40007100222008RBRIDGEDALE LLC       MIDTOWN TUN PLAZA    000002685004
40007100222009RBRIDGEDALE LLC       MIDTOWN TUN PLAZA    000001335004
40007200652009RPLASTIC CENTER INC   22-12 JACKSON AVENUE 000001310004
40007600092009RJOBEN CORPORATION    21-19 46 AVENUE      000000453504
40007700202008REMPIREFIND REALTY INC21-41 45 ROAD        000000287504
40007700352009R21 29 45TH ROAD INC  21-50 45 AVENUE      000000127504
"40008000232009RTOYOKO INN NEW YORK, 24-17 JACKSON AVENUE 000001627504"
40008210012008R                     27-28 THOMSON AVENUE 000002501444
40008210012009R                     27-28 THOMSON AVENUE 000002867584
40008500032009RKODO REALTY LLC      23-08 JACKSON AVENUE 000000865004
40008500522009RVINCENZO & TOMMASA AS45-24 PEARSON STREET 000000073504
40009900302009RPSTR REALTY CORP     25-61 49 AVENUE      000001925004
40011500362008RLARKIN REALTY LLC    47-55 27 STREET      000000940004
40011501812009RYIP DAVID WE-SAN     47-46 30 STREET      000001275004
"40011502312008RANOROC REALTY, INC.  29-03 DUTCH KILLS STR000004465004"
"40011502312009RANOROC REALTY, INC.  29-03 DUTCH KILLS STR000004465004"
40013100172008RSUK HAN NG/TRUSTEE   50-02 SKILLMAN AVENUE000000855004
"40013800252008RMDL & S,             43-12 50 STREET      000001020004"
"40013800252009RMDL & S,             43-12 50 STREET      000000930004"
40014201152009RK.H.L. FLAVORS INC   37-02 48 STREET      000000372004
40014202652008RSUKAT REALTY LLC     44-15 BARNETT AVENUE 000000042004
40014300102008R3500 48 STREET OWNERS45-10 48 STREET      000009450004
40014305002009RGENERAL MOTORS COMPAN43-40 NORTHERN BOULEV000006700004
40015100282009RALESSIO ICCARI       47-04 GREENPOINT AVEN000000421504
"40015100302009RBAZON, MOSHE         47-08 GREENPOINT AVEN000000391504"
40015300172008R4602-4626 GREENPOINTA46-12 GREENPOINT AVEN000017230004
40015300172009R4602-4626 GREENPOINTA46-12 GREENPOINT AVEN000011775004
"40015600532009R4515 REALTY,LLC      45-15 43 AVENUE      000000092502"
"40015700352009RSZE, HAK-CHU         41-30 43 AVENUE      000000102642B"
40015800232009RJANTEN DEVELOPMENT LL43-10 SKILLMAN AVENUE000000150601
40015800242009RJANTEN DEVELOPMENT LL43-12 SKILLMAN AVENUE000000125401
40015800382009RSERVICE APARTMENTS IN41-44 44 STREET      000000440002
40015801242009RJANTEN DEVELOPMENT LL43-14 SKILLMAN AVENUE000000094801
40016400112008RRASELL REALTY CORP   45-02 QUEENS BOULEVAR000002005004
40016500112008RPARTNERS 2004 LLC C/O45-18 GREENPOINT AVEN000002605004
40017000092009RDOSS DOROTHY         47-25 45 STREET      000000150732A
40017300012008RBREIDBART MURRAY     43-01 43 STREET      000000410004
"40018302982009RESCO ESTATES, LLC    43 STREET            000000649004"
40018303322008RARGONAUT HOLDINGS INC39-10 43 STREET      000002180004
40018303322009RARGONAUT HOLDINGS INC39-10 43 STREET      000002190004
40018700192009R39-04 SKILLMAN LLC   39-02 SKILLMAN AVENUE000000297504
40018900452009R135 WEST 28TH STREET 40-15 QUEENS BOULEVAR000001105004
40019000052009R39-23 QUEENS REALTY L39-23 QUEENS BOULEVAR000001880004
40019000432009R1824-53 STREET REALTY43-40 40 STREET      000000419502
"40019000442008RGAVIN, LILLIAN       39-39 QUEENS BOULEVAR000000630004"
40019200542009RJERRILINE HOLDING COR45-48 42 STREET      000000227002
40019300552008R45-54 41ST STREET ASS45-54 41 STREET      000000235002
40019500072009RSHANNON ASSOCIATES OF45-55 39 STREET      000000561502
"40019600012008RAPPL REALTY, LLC     41-07 GREENPOINT AVEN000000150004"
40019600322009R47-20 OWERNS CORP    47-20 42 STREET      000001210002
40021402102009R33-00 PARTNERS LLC   33-00 NORTHERN BOULEV000012850004
40021500092009R41-41 38TH STREET LLC41-39 39 STREET      000000565004
40021600382009RVTI REALTY INC       41-24 38 STREET      000001775004
"40022200272009RKALOUDIS, SPIROS     35-04 43 AVENUE      000000313504"
40023400072008RCMB REALTY MANAGEMENT36-18 GREENPOINT AVEN000002330004
40023400072009RCMB REALTY MANAGEMENT36-18 GREENPOINT AVEN000000399504
"40023700332008RMARCAL REALTY,       35-02 48 AVENUE      000006022504"
"40023700332009RMARCAL REALTY,       35-02 48 AVENUE      000004942504"
40023901052009RHOWLING WOLF REALTY  31-08 NORTHERN BOULEV000003500004
40023901102009RHOWLING WOLF REALTY  NORTHERN BOULEVARD   000002145644
40024200092009RQ.B. ASSOCIATES      34-09 QUEENS BOULEVAR000002705004
40024400452009RH & H REAL ESTATE HOL43-30 33 STREET      000000155504
"40024500092009RGLUCK, LAWRENCE      32-07 VAN DAM STREET 000004100004"
40025800052008RJEHEE MANAGEMENT CORP32-33 32 PLACE       000007540004
40025800052009RJEHEE MANAGEMENT CORP32-33 32 PLACE       000007000004
"40026100462009RGALE AVENUE    ,     32-72 GALE AVENUE    000000188504"
40026500012009RBLDG ORCHARD LLC     43-43 QUEENS STREET  000004620004
40026500132009RBLDG ORCHARD LLC     43-01 QUEENS STREET  000001227504
40026500232009RBLDG ORCHARD LLC     42-22 ORCHARD STREET 000000242004
40026800042009RELECTRIC REALTY COMPA27-21 44 DRIVE       000000188004
40027500112008RRICHARD ZIRINSKY     31-21 THOMSON AVENUE 000000218004
40027500112009RRICHARD ZIRINSKY     31-21 THOMSON AVENUE 000000218004
40028700112009R3002-48 EQUITIES LLC 48-02 30 PLACE       000002345004
40028900342008RR B ASSOCIATES INC   31-10 HUNTERS POINT A000000420004
40028900342009RR B ASSOCIATES INC   31-10 HUNTERS POINT A000000300004
40029200012009R29-01 BORDEN REALTYCO29-01 BORDEN AVENUE  000006380004
40029203002008R2831 BORDEN AVE CORP 28-31 BORDEN AVENUE  000000120004
40029401502009RACCESS BIG KEY PARTNE29-00 REVIEW AVENUE  000004455004
"40029403202009RMASPETH SUPPLY CO.,  NEWTOWN CREEK        000003720004"
40029700282009RWOLF PROPERTIES ASSOC53-08 VAN DAM STREET 000000360004
"40030100052009REMPIREFIND REALTY, IN31-07 STARR AVENUE   000000305004"
40030400022009R52-29 35TH STREET SKY52-29 35 STREET      000000160004
40030700012009RCOUNTY CORKMNS/B/P/P/33-01 GREENPOINT AVEN000001158504
40030800032009RKATZEN FAMILY        35-02 BORDEN AVENUE  000001910004
40031000042008RHOWARD & NORMAN BAKER36-11 STARR AVENUE   000000094504
40031000042009RHOWARD & NORMAN BAKER36-11 STARR AVENUE   000000045004
40031200892009RREVIEW ASSOCIATES    38-20 REVIEW AVENUE  000006450004
40032000102009RGLOBE ELECTRIC SUPPLY33-43 9 STREET       000001145004
40032201122009RDAVIDSON EQUITIES LLC34-46 VERNON BOULEVAR000015630504
40032500012008RGCAN REALTY CORP.    10-05 35 AVENUE      000000517004
40032500012009RGCAN REALTY CORP.    10-05 35 AVENUE      000000656504
"40032500102009RLIN, LILY            34-19A 10 STREET     000000995004"
40032900432009REMPIREFIND REALTY INC35-44 10 STREET      000000377004
40034700162009RRAMZI REALTY CORP    22-20 36 AVENUE      000000790004
40034900012008RSEVIM MGT INC        36-42 21 STREET      000000318264
40034900012009RSEVIM MGT INC        36-42 21 STREET      000000318264
"40035800202009RVERNON ASSOCIATES, LL8-12 37 AVENUE       000000993504"
40036100112009RHUDSON 12TH STREET CO37-18 12 STREET      000000500504
40036400372009RC F DAWN CORP        37-24 22 STREET      000000320004
"40036400432008RANDREAS ONE, INC     37-42 22 STREET      000004189004"
40036900072009R37-15 TWENTY SEVENTH 37-15 27 STREET      000000605002
40037000062009RKERNS MANUFACTURING C37-23 28 STREET      000000407504
40037000072009RKERNS MANUFACTURING C37-21 28 STREET      000000301504
40037000282009RATLANTIC PROPERTIES  37-30 29 STREET      000000058504
40037200082008R37-21 30TH STREET COR37-11 30 STREET      000002745004
40037200082009R37-21 30TH STREET COR37-11 30 STREET      000002790004
40037500182009R33-04 37TH AVENUE ASS33-06 37 AVENUE      000000389004
40038300242009RTRIBORO REALTY 31ST S38-30 31 STREET      000000091504
40038700192008RDJL REALTY INC       25-16 38 AVENUE      000000917504
40038900122009RCIAMPA NORTH CO      38-13 23 STREET      000000755004
"40039200012009RHSIA, TAIN YAIE      39-47 21 STREET      000000799004"
40039200052009RPAOLING HWANG        39-31 21 STREET      000001028004
40039200152008RGRANT INTL CO INC    39-09 21 STREET      000003135004
"40039200432009RHISIA, TAIN WEI      21-07 40 AVENUE      000000738004"
40039400052008RCIAMPA NORTH COMPANY 39-26 24 STREET      000000269504
40039400202009RMARIJAN REALTY LLC   39-01 23 STREET      000000430004
40039900342009RGANESH MANAGEMENT LLC39-40 30 STREET      000000795004
40040200082008RIOANNIS REALTY LLC   30-07 NORTHERN BOULEV000002105004
40040200202009RWILSON ALVES         29-01 40 ROAD        000007445004
40040500232009R27-08 AVENUE REALTY L27-08 40 AVENUE      000008442004
40040500342009RLD REALTY CORP       40-26 28 STREET      000000695004
40040600012009RMAMM REALTY INC      25-17 41 AVENUE      000008963004
40040800252009RARVANITIS DIMITRIOS  23-12 40 AVENUE      000000589504
40040800292009RMAPSCO RLTY CO       40-14 24 STREET      000001580004
40040900182009RLADY LIGHTING INC    40-15 22 STREET      000000915004
40040900252008R40 20 23 RD INC      22-12 40 AVENUE      000001050004
40040900252009R40 20 23 RD INC      22-12 40 AVENUE      000000753004
40040900302009R40-14 CO             40-14 23 STREET      000002255004
40040900342008R4020 23RD ST INC     40-22 23 STREET      000000634504
40041100012009RGRAYBAR ELECTRIC CO I21-15 QUEENS PLAZA NO000004935004
"40041100122009RLIC VENTURE CAPITAL, 41-50 21 STREET      000013590004"
40041100312008RUNITED DEVELOPMENT VE41-02 22 STREET      000009880004
40041100312009RUNITED DEVELOPMENT VE41-02 22 STREET      000010375004
"40041400132008RCIAMPA 24, LLC       41-37 24 STREET      000003100004"
"40041400132009RCIAMPA 24, LLC       41-37 24 STREET      000003100004"
"40041510012009RYU, HEE SUN          41-26 27 STREET      000000145072"
40042500012008RELECTRIC REALTY COMPA23-01 42 ROAD        000000905004
40042500012009RELECTRIC REALTY COMPA23-01 42 ROAD        000000770004
40042500052008RELECTRIC REALTY COMPA23-10 QUEENS PLAZA SO000004000004
40042500052009RELECTRIC REALTY COMPA23-10 QUEENS PLAZA SO000003595004
40042700112009RHOWARD & NORMAN BAKER21-23 43 AVENUE      000000935004
40042800012008R42 50 24TH ST REALTY 42-50 24 STREET      000001810004
40042800012009R42 50 24TH ST REALTY 42-50 24 STREET      000001810004
40043000292009RHFIW REALTY HOLDINGCO25-19 43 AVENUE      000002738004
40043400162009R43-12 HUNTER LLC     HUNTER STREET        000003164004
"40043700062009RPERENNIALLY GREEN, IN23-19 44 DRIVE       000000205004"
40043700072009RPERENIALLY GREEN INC 23-17 44 DRIVE       000000188504
40043700082009RPERENNIALLY GREEN INC23-15 44 DRIVE       000000188504
40043700092009RPERENNIALLY GREEN INC23-13 44 DRIVE       000000188504
40043700102009RPERENNIALLY GREEN INC23-11 44 DRIVE       000000258504
40043800452009RLONG CITY PROPERTIESL21-44 44 ROAD        000000795004
40043900012009RFRED M LAWRENCE CO IN44-16 23 STREET      000000775004
40044100092009REXCLUSIVE REALTY SERV21-03 44 AVENUE      000002185004
40044300142009RROLEX LIC REALTY LLC 12-12 43 AVENUE      000052750004
40045100012009RTHE JMK REALTY FAMILY9-21 44 ROAD         000002415004
40045400012009ROSIRIS PROPERTIES COR9-09 44 AVENUE       000002497004
40045400172008RSEBE REALTY CORP     43-63 9 STREET       000006530004
40045400172009RSEBE REALTY CORP     43-63 9 STREET       000003290004
"40046100082009RREED, RICHARD        9-01 43 AVENUE       000001245504"
40047107032009RQUEENS PLAZA VENTURES38-50 21 STREET      000001935004
40047107342009R3802 21ST STREET GASO38-02 21 STREET      000000278284
40047500492009R38-36 TENTH STREET   38-36 10 STREET      000001990004
40047700132009RTERRA COTTA LLC      41-98 VERNON BOULEVAR000000616504
40047700152009RTERRA COTTA LLC      42-02 VERNON BOULEVAR000007450754
40047700202009RTERRA COTTA LLC      42-16 VERNON BOULEVAR000000090004
40050200382008RMICHAEL DELLA VECCHIA11-25 BROADWAY       000000100504
40050600362009RKKRK LLC             30-05 VERNON BOULEVAR000000297004
40050600502009RMMLR LLC             11-22 WELLING COURT  000000160504
"40053100072009R14-41 BROADWAY, LLC  14-41 BROADWAY       000000690004"
"40054200012009RNEWTOWN 2,           22-02 ASTORIA BOULEVA000000113504"
40056500272008RSELENE REALTY LLC    33-10 CRESCENT STREET000000545002
"40056900402008RALFA MANAGEMENT, LLC 23-28 31 AVENUE      000003000002"
"40057300052008RMIHALIOS, EKATERINI  27-07 NEWTOWN AVENUE 000000241802B"
"40057300052009RMIHALIOS, EKATERINI  27-07 NEWTOWN AVENUE 000000260002B"
"40057300062008RMIHALIOS, EKATERINI  27-05 NEWTOWN AVENUE 000000200852B"
"40057300062009RMIHALIOS, EKATERINI  27-05 NEWTOWN AVENUE 000000260002B"
40057600052008R25-31 30TH ROAD REALT25-31 30 ROAD        000001280002
40058100332008RHAMPSHIRE            33-43 CRESCENT STREET000002855002
40058300012008R34-50 28TH STREET REA34-50 35 AVENUE      000000990002
40058700652009RCHIOS REALTY ASSOCIAT32-70 31 STREET      000000468004
"40058800142008RAGNC LAMBADIS, LLC   31-65 29 STREET      000000265002"
"40058800142009RAGNC LAMBADIS, LLC   31-65 29 STREET      000000265002"
40058800262009RGODNER FAMILY LIMITED31-31 29 STREET      000000735002
40059400362009RSTANHOPE REALTY CORP.29-20 NEWTOWN AVENUE 000000225004
40060200512009R3632 REALTY CORP.    36-36 34 STREET      000000126004
40061100112009RFRANCHISE RLTY INTERS32-55 31 STREET      000000274504
40061400042009RH.G. HOLDING         32-15 BROADWAY       000000211504
40061500502009RJ & K ASTORIA REALTY 30-34 32 STREET      000000370002
"40062000732009RASTORIA STATION, LLC 32-02 ASTORIA BOULEVA000008325004"
40062800122008RJOSEPH PREVITI       28-15 34 STREET      000039500002
"40063000282008RPAFITIS, ANNA        28-20 37 STREET      000000122502"
40063200112008RYANNI REALTY CORP    25-53 34 STREET      000000171502
40063300272009RWP VENTURES 35TH ST L25-23 35 STREET      000002877002
40063300282009RWP VENTURES 35TH ST L25-21 35 STREET      000003102002
40063300292009RWP VENTURES 35TH ST L25-19 35 STREET      000002944502
40063300422009RGOZO RLTY CO         25-12 36 STREET      000000094802B
40063700012008RVESTA INDUSTRIES LLC 37-09 37 AVENUE      000000068004
40063700012009RVESTA INDUSTRIES LLC 37-09 37 AVENUE      000000068004
40063700752008RVESTA INDUSTRIES LCC 37-15 NORTHERN BOULEV000000400004
40063700752009RVESTA INDUSTRIES LCC 37-15 NORTHERN BOULEV000000985004
40063701012008RVESTA INDUSTRIES LLC 37-05 37 AVENUE      000000389004
40063701012009RVESTA INDUSTRIES LLC 37-05 37 AVENUE      000000389004
40064200362009RDAMROC REALTY CORP   34-22 35 STREET      000000450004
"40064600382009RLEPONTO REALTY, LLC  35-20 BROADWAY       000006080004"
40064700382009RNEW YORK COMMERCIAL B36-10 BROADWAY       000001445004
40065301212008RKALAS HARRY          25-39 37 STREET      000000365002A
40065301212009RKALAS HARRY          25-39 37 STREET      000000289502A
40065400622008RFLAVIO REALTY CORP   25-02 STEINWAY STREET000000290002
40065400622009RFLAVIO REALTY CORP   25-02 STEINWAY STREET000000200002
40065400722008RDINO RLTY CORP       25-22 STEINWAY STREET000000185002
40065400722009RDINO RLTY CORP       25-22 STEINWAY STREET000000185002
40065401002008R25-88 STEINWAY REALTY25-88 STEINWAY STREET000000249552A
40065401002009R25-88 STEINWAY REALTY25-88 STEINWAY STREET000000400712A
40065401012008R25-90 STEINWAY REALTY25-90 STEINWAY STREET000000129552A
40065401012009R25-90 STEINWAY REALTY25-90 STEINWAY STREET000000280712A
40065600042009RJOHN GIANOURAKIS     32-83 38 STREET      000000123402A
40065600352008R3804 REALTY CORP.    38-04 BROADWAY       000000661504
40065600352009R3804 REALTY CORP.    38-04 BROADWAY       000000571504
40065600502008RDOMENICO PINTO       32-32 STEINWAY STREET000000390004
40065600502009RDOMENICO PINTO       32-32 STEINWAY STREET000000390004
40065600512008RSTEINWAY REALTY VENTU32-34 STEINWAY STREET000002125004
40065600582009RANASTASIOS CONSTANTIN32-50 STEINWAY STREET000000229504
40065800392008RASTORIA REALTY HOLDIN38-04 31 AVENUE      000000823004
40065800392009RASTORIA REALTY HOLDIN38-04 31 AVENUE      000001930004
40065800482009RCAGEN LLC            31-16 STEINWAY STREET000000579004
"40065800682009RH & S GORDON TWO, LLC31-64 STEINWAY STREET000000220004"
40065900032008RGOLDEN KEY FOOD STORE37-13 31 AVENUE      000016745004
40065900032009RGOLDEN KEY FOOD STORE37-13 31 AVENUE      000015260004
40066000072009R3088 STEINWAY REALTY 30-86 STEINWAY STREET000005360004
40066000612009RMELVIN LAST          30-34 STEINWAY STREET000001120004
40066000692009RMELVIN LAST          30-50 STEINWAY STREET000000467504
40066000742009R30-60 STEINWAY STREET30-60 STEINWAY STREET000000695004
40066001852009RSTEINWAY EQUITIES LLC30-92 STEINWAY STREET000001195004
40066300012009RKGG REALTY LLC       28-49 STEINWAY STREET000000806504
40066300092008RLENBERN REALTY CORP  28-27 STEINWAY STREET000000462504
40066300092009RLENBERN REALTY CORP  28-27 STEINWAY STREET000000404004
40066300202009RARGMAR LLC           28-03 STEINWAY STREET000000159672B
40066300452009RBAXTER LLC           28-59 STEINWAY STREET000000155002
40066500052009REAST CENTAL MEATS INC38-23 NORTHERN BOULEV000000795004
"40066800052009RKING KULLEN GROC.CO,I35-30 STEINWAY STREET000004200004"
40067000272008RQUEENSBORO FARM PRODU35-22 42 STREET      000000147004
40067000302008RQUEENS BORO FARM PROD35-28 42 STREET      000000136004
"40067300012009RPARAKEET,            34-49 STEINWAY STREET000003205004"
40067600902009RASTORIA PROPERTIES CO41 STREET            000002245004
40067700372009RGOOD WATER CORPORATIO41-08 BROADWAY       000000629504
40067800112009RHORAK FAMILY CORP    31-75 STEINWAY STREET000000375004
40068000152009REMMARS EQUITIES LLC  30-75 STEINWAY STREET000001065004
40068000182009RGESOALNICO LLC       30-69 STEINWAY STREET000000642004
40068000242009RSADIE EISENBERG AS TR30-57 STEINWAY STREET000000969504
40068000252009RSTEINWAY RLTY CORP   30-55 STEINWAY STREET000000978504
40068400402009R25-15 STEINWAY CORP  25-15 STEINWAY STREET000001785004
"40068500032009R28TH AVENUE MGT.,LLC 41-11 28 AVENUE      000002610002"
40068500762009RQUEENS 42 ST DEV CORP25-76 42 STREET      000000100322A
40068800272008RJMO REALTY LLC       24-24 43 STREET      000000368332B
40068800272009RJMO REALTY LLC       24-24 43 STREET      000001861372B
40072600012009RLOIS WITKOFF         47-07 BROADWAY       000005450004
"40073500012009RBEST BUY STORES, L.P.49-21 NORTHERN BOULEV000000906004"
40074000492008RSERRES REALTY LLC    49-12 30 AVENUE      000000649504
40074000492009RSERRES REALTY LLC    49-12 30 AVENUE      000000595504
40075500052009RASTORIA WAREHOUSE ENT49 STREET            000003600004
40075500062009RASTORIA WAREHOUSE ENT49 STREET            000003600004
40075500072009RASTORIA WAREHOUSE ENT49 STREET            000003600004
40075500082009RASTORIA WAREHOUSE ENT49 STREET            000003600004
40078200012009RLAGUARDIA CENTER REAL43-02 DITMARS BOULEVA000022350004
40078200322009RALPS REALTY INC      43-11 23 AVENUE      000000855004
40079500212009R2221/25 STNWAY ST RTY22-25 STEINWAY STREET000000510004
40079500242009RFESTA FRANK          22-21 STEINWAY STREET000000498504
"40080700632009RCHRISTOFORATOS, KATE 21-74 STEINWAY STREET000000363504"
40080700662009RNICK IOCCO           21-84 STEINWAY STREET000000892504
40081100012009RVESTA 50 LLC         19-73 38 STREET      000036325004
40082900082009RR & R REALTY ENTERPRI31-05 20 AVENUE      000000390004
40083010022008RASTORIA ATLAS HOLDING21-68 35 STREET      000010300002
40083010022009RASTORIA ATLAS HOLDING21-68 35 STREET      000011200002
40083100112009RALIKAKOS GEORGE      21-51 31 STREET      000000750004
40083100202009RJ.L.E.R. ASSOCIATES  21-25 31 STREET      000002990004
40083100252008R21-01 31 PARTNERS    21-19 31 STREET      000001125004
40083100252009R21-01 31 PARTNERS    21-19 31 STREET      000001100004
40083100272009R21-01 31 PARTNERS    21-07 31 STREET      000000480504
40083100292008R21-01 31 PARTNERS    21-01 31 STREET      000000957004
40083100292009R21-01 31 PARTNERS    21-01 31 STREET      000000304504
40083300482009RVESCOVO              22-24 33 STREET      000000168002B
40083500562009RSBUTTONI LUCIANO     23-32 33 STREET      000000030352A
"40083900302009RGARDENA ASSOCIATES, L25-15 27 STREET      000002511502"
40083900312009RPAM REALTY           25-13 27 STREET      000001122002
40084000572009RLUCIANO FANTINI      24-12 31 STREET      000000139202A
40084000602009RODESSEFS PARASCO     24-16 31 STREET      000000138882A
40084000612009RFANTINI KALOWTIE     24-18 31 STREET      000000139202A
"40084001632009RKASSAPIDIS, DIMITRIOS24-20 31 STREET      000000289532A"
40094900642009RVOUTSAS PETER        19-53 80 STREET      000000095052A
"40100100422009RAPOPESO, INC.        22-19 HAZEN STREET   000002070504"
40101010032009RCONDO UNITS L P      22-09 78 STREET      000000028862
40101600092009R49TH STREET REALTY LL49 STREET            000002670004
40101601252008R62-05 30TH AVE REALTY62-05 30 AVENUE      000006045294
40101601252009R62-05 30TH AVE REALTY62-05 30 AVENUE      000006326004
40101605512009RPUBLIC STORAGE INSTIT24-01 BK QNS EXPWY W 000003650004
40101700432009RTELDA REALTY CO.     26-20 BOROUGH PLACE  000000215004
40101900022009RELIZABETH JEAN GALASS26-50 BOROUGH PLACE  000003605004
"40109500162009RGROVICK PROPERTIES,  83-10 ASTORIA BOULEVA000004800004"
"40110000372009RBOULEVARD LLC, 88-25 88-25 ASTORIA BOULEVA000000596004"
40110000432009RMCDONALD'S CORP      80-05 ASTORIA BOULEVA000000224004
40111310022009RWEST MILL WOODSIDE LL57-07 31 STREET      000005087674
40112700332009RBASMAJIAN ARMAND     30-62 79 STREET      000000122004
40112700402008R31 AND 78 LLC        78-19 31 AVENUE      000000200002A
40112700402009R31 AND 78 LLC        78-19 31 AVENUE      000000416002A
40112700422008R                     78-17 31 AVENUE      000000200002A
40112700422009R                     78-17 31 AVENUE      000000416002A
40112700432008R                     78-15 31 AVENUE      000000200002A
40112700432009R                     78-15 31 AVENUE      000000416002A
40113500372009R1192 DIONYSIOS VLACHO31-06 60 STREET      000000118362A
"40115500362009RPAFOS REALTY, LLC    53-03 BROADWAY       000001005004"
40116200382009RMURKO INTERNATIONAL I32-56 62 STREET      000000404504
40117000472008RLACHER/KOEPPEL REALTY74-05 NORTHERN BOULEV000000244004
40117000472009RLACHER/KOEPPEL REALTY74-05 NORTHERN BOULEV000000361004
40117900072008RLOLA LTD             NORTHERN BOULEVARD   000000266004
40117900072009RLOLA LTD             NORTHERN BOULEVARD   000000266004
40118200402009RA. LONG LLC          58-02 NORTHERN BOULEV000010680004
"40119200702009RRAINA II, LLC        33-54 54 STREET      000000824504"
"40119300602009RRAINA II, LLC        54-18 BROADWAY       000000178504"
40119600012009RAMER ITAL FOODS LTD  34-56 58 STREET      000000522504
40119600072009RAMER-ITAL FOODS LTD  57-09 37 AVENUE      000000662004
40119700092009RREGENCE PITCURE FRAME58-03 37 AVENUE      000000205004
40119900482008RNICKERSAM REALTY INC 35-30 61 STREET      000000160504
40119900482009RNICKERSAM REALTY INC 35-30 61 STREET      000000170004
40120900202008RTASCO ENTERPRISES LLC37-32 55 STREET      000000370004
40120900202009RTASCO ENTERPRISES LLC37-32 55 STREET      000000370004
40121000382009RTASCO ENTERPRISES    37-31 55 STREET      000000169004
40121200072009RW A M A CORP         57-12 37 AVENUE      000000110004
"40122901082008RBOUZAS, BENIGNO      39-26 61 STREET      000000100004"
40124500062009RP.P.&T.    .         72-12 NORTHERN BOULEV000000435004
40126800132008RALLENDALE APTS       34-24 82 STREET      000002165002
40127300392008R73-01 37TH AVENUE ASS73-01 37 AVENUE      000001740004
40127600122009R143 20 STREET JACKSON35-14 77 STREET      000000175502
40127600152009R137-20 ST JACKSON HGT35-20 77 STREET      000000194002
40127800322009R107 22 ST JACKSON HTS35-56 79 STREET      000000126502
40127900122009R143 23RD STREET JACKS35-16 80 STREET      000000080002
40128201492009RLEE EDWARD S         71-21 ROOSEVELT AVENU000000266004
40128201852008RSKAROS REALTY LLC    37-06 72 STREET      000000420002
40128201852009RSKAROS REALTY LLC    37-06 72 STREET      000000510002
40128300012009RFISHER ESSEX LLC     72-10 37 AVENUE      000001700002
40128400252009R37 19 73RD STREET LLC37-19 73 STREET      000000186004
"40128400552008RGOLDBERG, MITCHELL   37-38 74 STREET      000002130004"
"40129000422009RBARBA, BENITO (TRUSTE79-11 ROOSEVELT AVENU000000388504"
40129000432008RJ & J ALARCON REALTY 79-09 ROOSEVELT AVENU000000295504
40129000442008RJ & J ALARCON REALTY 79-07 ROOSEVELT AVENU000000300004
40129000452008RJ & J ALARCON REALTY 79-05 ROOSEVELT AVENU000000327004
40129100062008RQPI-II LLC           37-06 81 STREET      000000880002
40129100382009RFGP WEST STREET LLC  80-17 ROOSEVELT AVENU000000565004
40129100602008RMANNWERK CORP        37-33 80 STREET      000000110002
40129200362009RPONCE DE LEON FEDERAL37-60 82 STREET      000004033504
40129300012009R6015 WOODSIDE AVE    60-15 WOODSIDE AVENUE000002415002
"40130300082009RLUI, SUNG YAM        71-22 ROOSEVELT AVENU000000063004"
40130500232009RVIG PROPERTIES LLC   73-02 ROOSEVELT AVENU000005238004
40131200102009RMASSACHUSETTS LEASING72-10 41 AVENUE      000001395002
40131200432008R41-42 73RD STREET OWN41-42 73 STREET      000001060002
40132000122009RJUNE & YOUN REALTY C 51-02 ROOSEVELT AVENU000002720004
"40132300572009RHAQUE, MUHAMMAD A    43-27 54 STREET      000000112002A"
"40132300652009RLJESNJANIN, SUCKO    43-11 54 STREET      000000053142A"
40132900222008RKAM YU INC           56-12 43 AVENUE      000000149502
40132900222009RKAM YU INC           56-12 43 AVENUE      000000239502
40133500362009RASTORIA FEDERAL SAVIN60-20 WOODSIDE AVENUE000004345004
40133500532009RASTORIA FEDERAL S/L A61 STREET            000000049504
40134000012008RJAL DIVERSIFIED MANAG63-11 QUEENS BOULEVAR000006280002
40134100772008RQUEEMO CORP          64-11 QUEENS BOULEVAR000001290004
40134100772009RQUEEMO CORP          64-11 QUEENS BOULEVAR000002820004
"40134800172009RKIM, PIL BONG        68-04 43 AVENUE      000000103042A"
40134800192009RCHARLES C. KIM       68-08 43 AVENUE      000000171532A
"40135200882009RCHEN, YUNG CHI       45-12 74 STREET      000000087004"
40136300052008RAMERADA HESS CORP    89-08 ASTORIA BOULEVA000000300004
40136300052009RAMERADA HESS CORP    89-08 ASTORIA BOULEVA000000390004
40136700252009R93-07 ASTORIA BLVD CO93-01 ASTORIA BOULEVA000003955004
40136700482009R93-20 ASTORIA BLVD CO93-20 ASTORIA BOULEVA000003940004
40137900452009R99 GGS REALTY CORP   99-10 ASTORIA BOULEVA000005397004
40143400012009R86-02 NORTHERN       86-04 NORTHERN BOULEV000002470004
40143600012009RWHITE CASTLE SYSTEM I88-08 NORTHERN BOULEV000000885004
40144300512009R162 25TH ST JACKSON H34-43 82 STREET      000000206502
"40145100122008RBRG QUEENS,LLC       34-18 91 STREET      000000392502"
40145100472008RBRG QUEENS LLC       34-19 90 STREET      000000392502
40145500012008R94-06 34TH AVENUE REA94-06 34 AVENUE      000000385002
40145500012009R94-06 34TH AVENUE REA94-06 34 AVENUE      000000440002
40145500412009RLSB  35TH-94TH LLC   34-15 94 STREET      000001200002
40145500552009R94-06 34TH ROAD REALT94-06 34 ROAD        000000420002
40145900352008RELEANOR SUSSMAN REVOC85-15 37 AVENUE      000000355004
40145900352009RELEANOR SUSSMAN REVOC85-15 37 AVENUE      000000265004
40146700322009R35-56 94TH STREET LLC35-56 94 STREET      000000281002
40146800252009RQPII-35-38 95 STREET 35-38 95 STREET      000000416002
40146800282009RQPII-35-44 95 STREET 35-44 95 STREET      000000551002
40146800522009R35-51 94 ST LLC      35-51 94 STREET      000000765002
40146800552009R35-45 94TH ST LLC    35-45 94 STREET      000000382002
"40147000442008RWEINSTEIN, EVAN      82-07 ROOSEVELT AVENU000000266504"
"40147000442009RWEINSTEIN, EVAN      82-07 ROOSEVELT AVENU000000226004"
40147000492009RJUNE AZOULAY         37-59 82 STREET      000001115004
40147200512009R60 66 27 ST J H INC  37-45 84 STREET      000000231002
40147300492008R85 STREET APARTMENTS 37-57 85 STREET      000000239002
40147300492009R85 STREET APARTMENTS 37-57 85 STREET      000000248002
40147700342009RLEE ANN ASSOCIATES LL37-54 90 STREET      000001568754
40147900492009RBAMK REALTY INC      37-57 91 STREET      000000337504
40148400062008RBRITHYM REALTY CO    37-02 JUNCTION BOULEV000001552004
"40148700442009RERMISEL REALTY CO., I40-37 76 STREET      000001500004"
40148800062009RL AND F BUILDING  LLC77-14 ROOSEVELT AVENU000000925004
40148910022009R78-14 ROOSEVELT LLC  78-14 ROOSEVELT AVENU000001170004
40149000122009RHY PROPERTIES INC    40-12 80 STREET      000005845004
40149000532009RQPII-40-11/15/19 79 S40-11 79 STREET      000001480002
40149200222009RMODERN BUSINESS ASSOC40-36 82 STREET      000000405004
40149300032009R8210 ROOSEVELT AVE IN40-06 82 STREET      000004850004
40149600062009RBERNARD WEISS        76-26 BROADWAY       000005690004
40150500792009RSTAR CAPITAL LLC     40-17 ITHACA STREET  000000290002
40151000602009RJOA BROTHERS HOLDINGS88-14 ROOSEVELT AVENU000000248004
40151000612009RJOA BROTHERS HOLDINGS88-16 ROOSEVELT AVENU000000208004
40151000632009RRHZ MANAGEMENT INC.  88-20 ROOSEVELT AVENU000000133504
40151010012009RR & H MANAGE MENT INC89-24A ROOSEVELT AVEN000000941314
40151600492009RQPII- 42-29 JUDGE STR42-29 JUDGE STREET   000000775002
40151810012009RGREGG M. SZERLIP     84-25 ELMHURST AVENUE000000072654
40151812012009RQUEENS BROADWAY      83-06 VIETOR AVENUE  000007705004
40151812032008RRAFIZ LAKHANA        83-06 VIETOR AVENUE  000000640002
40152500302009RTOWN LEASEING LIMITED42-42 80 STREET      000001840002
40153601072009RACRAMAL INC          77-17 QUEENS BOULEVAR000002630004
40153900012009RJACK FOREST INC      80-23 QUEENS BOULEVAR000006245004
40154600252008RWALGREEN CO          84-20 BROADWAY       000000455004
40154800262009RQB 84 REALTY LLC     QUEENS BOULEVARD     000004550004
40154900162008RKAM LUN FOOD PRODUCTS86-18 BROADWAY       000001492504
40154900162009RKAM LUN FOOD PRODUCTS86-18 BROADWAY       000001492504
40155300282009RQPII-40-94 DENMAN STR40-94 WHITNEY AVENUE 000000600002
"40156100012008RELMHURST BUILDERS, LL82-67 BROADWAY       000001690004"
"40156100342008RELMHURST BUILDERS, LL82-79 BROADWAY       000000145004"
40156200262009R40-12 94TH STREET COR40-12 94 STREET      000000319322B
"40157500292009RSTEPHEN TING ENG, AS 42-10 94 STREET      000000024931"
40158100012008RREGENT REALTY CO     83-45 BROADWAY       000001575002
40158900922009RMACPIN REALTY CORP   94-06 ROOSEVELT AVENU000000235004
40159300082009RSPRAGUE INSTITUTIONAL95-28 ROOSEVELT AVENU000000340004
"40159700462008RCAI, BINBIN          41-07 95 STREET      000000228002"
"40159700462009RCAI, BINBIN          41-07 95 STREET      000000111002"
"40160000612008R45-10 94TH STREET,   45-10 94 STREET      000019650004"
"40160000612009R45-10 94TH STREET,   45-10 94 STREET      000021135004"
40160001302008RA & B REALTY         43-23 91 PLACE       000000490004
40160001302009RA & B REALTY         43-23 91 PLACE       000000400004
40160200412009RFB 45-02 REALTY CORP 45-02 JUNCTION BOULEV000000074504
40160500722009R96-06 ROOSEVELT AVENU96-02 JUNCTION BOULEV000000840004
40160600012009RPAUL PYUNGMOO LEE    97-18 ROOSEVELT AVENU000000610004
"40161110012009 CHIU, MAY            41-10 97 PLACE       000000019722"
"40161600092009RCOINDET, RAMON F.    41-03 99 STREET      000000997004"
40161600472009RTERRY S. TRIADES     99-31 42 AVENUE      000000047162A
40161710012009RSOO IK LEE           99-05 43 AVENUE      000000196654
40161710022009RSOO IK LEE           99-05 43 AVENUE      000000196654
"40161711012009RLEE, SO IK           99-07 43 AVENUE      000000197104"
40161900112009R101-06 43RD AVE. OWNE101-06 43 AVENUE     000000365002
40163200202009RYORKSHIRE REALTY CORP100-17 23 AVENUE     000017250004
"40164000252009RLAGUARDIA ASSOCIATES,104-04 DITMARS BOULEV000024520004"
40169400012009RAMERICAN OIL CO      107-10 ASTORIA BOULEV000000440504
"40169700392009RNORTHERN-102, INC.   102-09 NORTHERN BOULE000000267004"
"40169800292009RCONSTANTAKIS, CHRIS  32-40 104 STREET     000000100152A"
40169800472009R103-01 NORTHERN BLVDR103-01 NORTHERN BOULE000001305004
40170000362009RCOMMUNITY HOMES HOUSI32-56 106 STREET     000000138004
40170401722008RASTORIA & 110 ST ASSO110-14 ASTORIA BOULEV000001610002
40171700042008R102-06 NORTHERN LLC  102-06 NORTHERN BOULE000000048504
40171700042009R102-06 NORTHERN LLC  102-06 NORTHERN BOULE000000044004
40172700082009RDORIE MILLER HOUSING 112-50 NORTHERN BOULE000003070002
40173700602009RUNION & COURT REALTY 35-01 JUNCTION BOULEV000000377504
"40175900502009RJUNCTION TRADING, LLC37-25 JUNCTION BOULEV000007260004"
40176500442008RDAVID ROSERO         99-07 ROOSEVELT AVENU000000150004
40176500442009RDAVID ROSERO         99-07 ROOSEVELT AVENU000000150004
40176900672008RHUA MANAGEMENT LLC   37-73 103 STREET     000000291202A
40176900672009RHUA MANAGEMENT LLC   37-73 103 STREET     000000364492A
40176900812009RYANG STAR LLC        37-47 103 STREET     000001517192A
40182500252009RANOVY ASSOCIATES FLUS37 AVENUE            000000173504
40182500282009RANOVY ASSOCIATES FLUS37 AVENUE            000000098504
40182500302009RANOVY ASSOC          126-83 37 AVENUE     000000599004
40183100012008RSEMCO INC            127-43 36 AVENUE     000000147004
40183100012009RSEMCO INC            127-43 36 AVENUE     000000736504
"40184200012009R864163 REALTY, LLC   86-55 BROADWAY       000002780004"
40184500412008RWHITE CASTLE SYSTEM I89-31 QUEENS BOULEVAR000000520004
40184500412009RWHITE CASTLE SYSTEM I89-31 QUEENS BOULEVAR000000520004
40184700192008RCONSTANTINOS G CACHIM91-02 CORONA AVENUE  000000101504
40186001002008RMACERICH QUEENS LIMIT90-15 QUEENS BOULEVAR000075500004
40186001002009 MACERICH QUEENS LIMIT90-15 QUEENS BOULEVAR000023000004
40189800232009RD.M. H. DEVELOPMENTLL53-09 97 PLACE       000000475004
40189800252009RDMH DEVELOPMENT LLC  97 PLACE             000000117004
40189800272009RDMH DEVELOPMENT LLC  53-01 97 PLACE       000000117004
40190100262009RSINHA HANNAH         55-30 JUNCTION BOULEV000001420004
40191800502009RLONDON LEASING COMPAN96-02 57 AVENUE      000001970002
40191800822009REXPRESSWAY SHOPPINGCO57-02 99 STREET      000002260004
40191801052009RCOLUMBIA LEASING LIMI97-15 HOR HARDING EP 000002430002
"40193500122009R104-34 CORONA, INC.  104-34 CORONA AVENUE 000000256002A"
40195800252009RBING FAT LAU         58-36 PENROD STREET  000000166962A
"40196400012009RWU, SHUN YING        59-30 108 STREET     000002700002"
40197000392009RHARTOFILIS EMANUEL   110-35 HOR HARDING EP000000226904
40197100522009RR & S HOTEL LLC      113-10 HOR HARDING EP000005685004
"40197400022008R4010 NATIONAL REALTY,102-18 ROOSEVELT AVEN000002325004"
40197400112008RMCDONALD'S CORPORATIO40-10 NATIONAL STREET000000925004
40198000332009RSS PRECISION GEAR & I45-12 104 STREET     000000151004
40198900902009RTINEE BEANEE LLC     45-05 104 STREET     000000259202A
40198900922009RTINEE BEANEE LLC     45-03 104 STREET     000000259202A
"40199400232009RFEDSTAR,             50-20 108 STREET     000001665004"
40199400302009RT.P. ENTERPRISES INC.107-01 CORONA AVENUE 000001915004
40199600342008RCONQUISTADOR LLC     108-56 ROOSEVELT AVEN000000980004
40200800782009RMARSANICO PROPERTIESL108-13 53 AVENUE     000001744004
40201400532009RXIAO L ZHANG         111-71 42 AVENUE     000000145601
"40209100112008RPARTNERSHIP 1995 II, 97-21 QUEENS BOULEVAR000001155004"
"40210000152009RWALDEN TERRACE, INC. 98-19 64 AVENUE      000002000002"
"40210000212009RWALDEN TERRACE, INC. 98-33 64 AVENUE      000002100002"
"40210000292009RWALDEN TERRACE, INC. 98-50 63 DRIVE       000002100002"
"40210100012009RWALDEN TERRACE, INC. 98-09 64 ROAD        000002100002"
"40210100162009RWALDEN TERRACE, INC. 98-25 64 ROAD        000002100002"
"40210100242009RWALDEN TERRACE, INC. 98-40 64 AVENUE      000002100002"
"40211200302008RSHAMUELOVA, ANZHELIKA99-41 64 AVENUE      000002720002"
"40211200302009RSHAMUELOVA, ANZHELIKA99-41 64 AVENUE      000000367002"
40211300012009R64 11 OWNERS CORP    64-11 99 STREET      000001880002
40212100212009RMAPLE LEASING LIMITED102-40 62 AVENUE     000001295002
40212100512009RBIRCH LEASING LIMITED102-45 62 ROAD       000001265002
"40212200102009RFRANTELLIZZI, DOMINIC62-29 102 STREET     000000292002B"
40212200282008RELM LEASING LIMITEDLI102-50 62 ROAD       000001125002
40212200282009RELM LEASING LIMITEDLI102-50 62 ROAD       000000630002
40213200542008R66 10 YELLOWSTONE OWN66-10 YELLOWSTONE BLV000001315002
40213200542009R66 10 YELLOWSTONE OWN66-10 YELLOWSTONE BLV000001635002
"40213500012009RAZOULAY, SOLOMON     101-23 QUEENS BOULEVA000000516004"
40214000012008RCLASSIC HOLDING CO   104-15 QUEENS BOULEVA000001515004
40214400022008RCAMELOT ASSOCIATES   105-10 62 ROAD       000001030002
40214400152009ROAK LEASING LIMITEDPA105-40 62 ROAD       000001655002
"40219200222009RMALAKOVA, ESFERA     110-34 67 DRIVE      000000049201B"
40221400012009RQUEENS BOULEVARD TENA106-15 QUEENS BOULEVA000003180002
40221600012008RRIDGEWOOD SAVINGS BAN107-55 QUEENS BOULEVA000000224004
"40222300202008RPROWORKS PROPERTIES, 108-48 70 ROAD       000002025002"
40222300382008RPETER SIMON          108-37 71 AVENUE     000001860002
40223500042008R110-20 71ST RD APTS I110-20 71 ROAD       000001965002
40223500252009RSANS SOUCI OWNERS COR110-50 71 ROAD       000001615002
40223600122008RKALIKOW FAMILY PARTNE110-16 72 AVENUE     000001494002
40223600332008R7210 OWNERS CORP     72-10 112 STREET     000001310002
40226400422008RTHREE MAC PROPERTIES 113-13 QUEENS BOULEVA000001065004
40226400582008RWONGTAITONG-QUEENS BO112-47 QUEENS BOULEVA000001280004
40226410042009RJM FAMILY REALTY LLC 112-01 QUEENS BOULEVA000000178894
40226501162009R113-07 REAL ESTATE AS113-07 76 ROAD       000000758002B
"40226710012008RBESPROZVANY, ILIA    76-01 113 STREET     000000005524"
"40226710012009 BESPROZVANY, ILIA    76-01 113 STREET     000000005524"
40228300752009RSIMON & SIMON EQUITIE50-05 47 AVENUE      000000525004
40228301752009RSIMON & SIMON EQUITIE50-15 47 AVENUE      000000309004
40228900382009RQPII- 48-16 46 STREET48-16 46 STREET      000000645002
"40229700512009 BAZON , KIA-LYNN     50-30 48 STREET      000000048781"
40229800462009RBEL-I REALTY CORP    5022A 49 STREET      000001075004
40234300012008RHORIZON KINGDOM LLC  58-51 52 AVENUE      000000865004
40236100052009RANTHONY ALIZIO       51-41 59 PLACE       000002495004
40236100152009RANTHONY ALIZIO       51-03 59 PLACE       000000938504
40237101122009RNEDBOR GLORIA G      61-10 MAURICE AVENUE 000000225004
40237401012008R65TH PLACE REALTY COR64-21 53 DRIVE       000000188504
40237401012009R65TH PLACE REALTY COR64-21 53 DRIVE       000000058004
40237501062009R64-10 MAURICE AVENUE 64-10 MAURICE AVENUE 000001480004
"40238700162009RMEMON, IQBAL         50-15 65 PLACE       000000109201"
"40239200232009RVOLLWEILER,ELSE(TRSTE65-10 QUEENS BOULEVAR000000177004"
40243400282008RROCK ROAD LLC        48-08 70 STREET      000000265004
40243500312009RWEBSTER SCHOTT REALTY49-12 70 STREET      000000200354
40243900022008R51ST ST AVENUE REALTY69-33 51 AVENUE      000000500004
40244100162009RALLIANCE SALVAGE CORP50-05 71 STREET      000000345004
40244100472008RDARIK ENTERPRISES INC71-15 51 AVENUE      000000149504
40244100472009RDARIK ENTERPRISES INC71-15 51 AVENUE      000000131504
40247200042008RQUEENS ELMHURST REALT51 AVENUE            000000102004
40247200042009RQUEENS ELMHURST REALT51 AVENUE            000000102004
40247200062008RQUEENS ELMHURST REALT80-18 51 AVENUE      000000038404
40247200062009RQUEENS ELMHURST REALT80-18 51 AVENUE      000000038404
40247200072008RQUEENS ELMHURST REALT80-20 51 AVENUE      000000038404
40247200072009RQUEENS ELMHURST REALT80-20 51 AVENUE      000000038404
"40247700202008RREDWOOD MANAGEMENT , 87-05 GRAND AVENUE   000000285004"
"40247700202009RREDWOOD MANAGEMENT , 87-05 GRAND AVENUE   000000141004"
40250600992008RCLIQUE LLC           72-15 GRAND AVENUE   000001550004
40253800362009RJAMES P CLARK JR     44-17 55 AVENUE      000000037004
40255000902008RUPS INC (NY)         46-05 56 ROAD        000011800004
40255000902009RUPS INC (NY)         46-05 56 ROAD        000011800004
"40255600012008RMJC ENTERPRISES I, LL54-21 48 STREET      000000515004"
"40255700802008RMJD HOLDINGS, LLC    54-37 48 STREET      000001145004"
"40255700802009RMJD HOLDINGS, LLC    54-37 48 STREET      000000965004"
40256400252009RDAVIS & WARSHOW INC  49 STREET            000000146504
40256400482009RDAVIS & WARSHOW INC  49 STREET            000000182004
40257500182008RGALASSO TRUCKING INC 57-27 49 STREET      000001010004
40257502252009RSPENCER REALTY CO    3 49 LANE            000002297444
40257503102008RPEC EAST COMPANY     48-83 MASPETH AVENUE 000000230004
"40260200202009RSOUTHEAST HOLDINGS, L58-45 47 STREET      000008890004"
40260201152008RGEYSER REALTY LLC    56-35 48 STREET      000001745004
40260201252008RGEYSER REALTY LLC    57-65 48 STREET      000003410004
40260201252009RGEYSER REALTY LLC    57-65 48 STREET      000001590004
40260201902009RRENSOW REALTY CORP   57-00 49 STREET      000001090004
40260300402008RD S I REAL ESTATE SYS57-13 49 STREET      000017035004
40260300402009RD S I REAL ESTATE SYS57-13 49 STREET      000007810004
40260300872008RROCKAWAY PLAZA CORPOR56-71 49 STREET      000000455004
40260300872009RROCKAWAY PLAZA CORPOR56-71 49 STREET      000000950004
40260301502009R58-38 PAGE PLACE CO  58-38 PAGE PLACE     000010095004
40261002192008RJANINE PAPER BOX CORP53-01 GRAND AVENUE   000003570004
40261101062009RQUEEN GRAND REALTY L 47-12 GRAND AVENUE   000012450004
40261101212009RFTZ CORP             49-00 GRAND AVENUE   000001265004
40261101582009RBERRYBRIDGE CORPORATI58-70 54 STREET      000001430004
40261103282008RM&V REALTY CO.       52-19 FLUSHING AVENUE000000880004
40261103282009RM&V REALTY CO.       52-19 FLUSHING AVENUE000002725004
40261103622009R52-01 FLUSHING AVENUE52-01 FLUSHING AVENUE000001170004
40262200132008RMONTESANO RLTY CORP  59-01 57 STREET      000000608504
40262200132009RMONTESANO RLTY CORP  59-01 57 STREET      000000896504
40262900632009R59-45 54 REALTY CORP.59-45 54 STREET      000000628504
40262900702009R59-29 54TH STREET LLC59-29 54 STREET      000001526504
40263000142009RSKM ASSOCIATES LLC   59-08 56 STREET      000000164004
40263000352009RH&D COMPONENTS INC   55-23 FLUSHING AVENUE000001299504
"40263001462008RCLARK, JAMES P(TRUSTE58-87 55 STREET      000000149504"
40263002012009RMETRO INTERIOR DEMOIN54-14 GRAND AVENUE   000005600004
"40263002252009RCLARK, WINIFRED Q    58-88 56 STREET      000000827004"
"40263101382009RCLARK, WINIFRED Q    58-66 57 STREET      000001019504"
40263900072009RFRANCHISE RLTY INTERS54-23 METROPOLITAN AV000001891504
40263900162009RMCDONALD'S CORPORATIO54-19 METROPOLITAN AV000000080204
40265600642009RQUEENS MIDTOWN ASSOCI58-75 54 AVENUE      000003785004
40265600862009RMAURICE AVENUE REALY 59-78 54 AVENUE      000000495004
40265600922009RWHITEROCK VENTURES 5859-85 MAURICE AVENUE 000001235004
40265601152009RNEW YORK CITY INDUSTR59-21 58 ROAD        000007165004
40265700602008RJ R ELECTRONICS INC  59-41 MAURICE AVENUE 000002325004
40265700602009RJ R ELECTRONICS INC  59-41 MAURICE AVENUE 000001965004
40266400012009RCIAMPA NORTH CO      56-45 58 STREET      000000310004
40266600062009RALLE PROCESSING CORP 58-55 56 DRIVE       000001380004
"40266800182008RLET IT BE REALTY, LLC5844 MAURICE AVENUE  000001060004"
"40266800182009RLET IT BE REALTY, LLC5844 MAURICE AVENUE  000000785004"
40266900012009REE MASPETH LLC       58-51 MASPETH AVENUE 000000841404
40267501342008RMILOU REALTY         57-54 57 DRIVE       000000149004
40267501342009RMILOU REALTY         57-54 57 DRIVE       000000257004
40267501432009R58-85 REALTY CORP    58-85 57 DRIVE       000003550004
40267700152009REMPIREFIND REALTY INC58-01 58 STREET      000000670004
40268100842009RM-H REALTY CO. #6 LLC58-54 59 STREET      000001025004
40268700162008REUJOY REALTY CORPORA 59-24 MAURICE AVENUE 000002780004
40268700162009REUJOY REALTY CORPORA 59-24 MAURICE AVENUE 000002690004
40268800172009RM-H JTS REALTY CO. LL59-25 55 DRIVE       000000240004
40271900292009RMDF HOLDING          65-51 GRAND AVENUE   000000380004
40273700882009RMARLER KNITTING REALT60-45 METROPOLITAN AV000000200004
40275500142009RLANDES ASSOCIATES    59-25 63 STREET      000000720004
40276300562008RM2 PROPERTIES LLC    61-19 FRESH POND ROAD000000094854
40276300562009RM2 PROPERTIES LLC    61-19 FRESH POND ROAD000000103854
40276900262008RJESSE L WIENER       62-10 64 STREET      000000057004
40276900262009RJESSE L WIENER       62-10 64 STREET      000000057004
40277100552009RMARANCO REALTY CORP  63-17 METROPOLITAN AV000003140004
40277200012008RLASORSA REALTY CORP  64-07 64 STREET      000000114562A
40277200012009RLASORSA REALTY CORP  64-07 64 STREET      000000268522A
40277800012008RAVALANCHE ENTERPRISES58-60 BROWN PLACE    000000099504
"40279600062008RFALCONE, LLC         69-64 GRAND AVENUE   000000118004"
40279700012008RM & R REALTY HOLDINGC70-08 GRAND AVENUE   000006235004
40279700012009RM & R REALTY HOLDINGC70-08 GRAND AVENUE   000001915004
40282200302009 LA SALA  VITO        58-30 76 STREET      000000026621
40284201372009RELIOT ENTERPRISE     60-72 72 STREET      000000521504
40288500122009RAMOCO OIL COMPANY INC60-50 WOODHAVEN BOULE000000661504
40288600282009RKOWALCZUK SYLVIA     85-15 60 ROAD        000000196002B
"40289400012008RBAYBERRY PROPERTIES,I56-09 84 STREET      000000120102A"
"40289400012009RBAYBERRY PROPERTIES,I56-09 84 STREET      000000263302A"
40289400472009RSANCHEZ TANYA M      84-03 57 AVENUE      000000088004
"40290000272009RJMD APTS., LLC.      84-39 60 DRIVE       000000469662A"
"40290400012009R8008 GRAND, LLC      80-02 GRAND AVENUE   000000895004"
40291100352009RZHONG PIN XIA        58-27 83 STREET      000000048002A
40291900502009RSILVERCREST FARMS INC81-01 ELIOT AVENUE   000000770004
40293000122009RABB &D REALTY        74-15 JUNIPER VALLEY 000000480004
40294900162009R115 15 101ST AVENUE R61-40 WOODHAVEN BOULE000000303004
40297401092009RDRY HARBOR REALTY LLC61-35 DRY HARBOR ROAD000033200004
40299300062008RROSARIA PULLARA      82-20 63 AVENUE      000000305004
40301600652009RAGOSTINO VACCARO     64-63 80 STREET      000000036201
"40301600792009RAGRIS & BRENNER, LLC 64-64 DRY HARBOR ROAD000003650004"
40301700202008RMIELE PLANNING LTD   64-77 DRY HARBOR ROAD000000124504
40306800582009RNEMRAH REALTY CORPORA66-52 79 STREET      000001165002
40306900692008R79-01 METROPOLITAN AV79-01 METROPOLITAN AV000000585004
40306900692009R79-01 METROPOLITAN AV79-01 METROPOLITAN AV000002655004
"40308000192009RAZOULAY, SOLOMON     95-28 QUEENS BOULEVAR000000968504"
40308101212009RACOSTA HECTOR M      63-50 SAUNDERS STREET000002663692B
40308101252009RARBERN REALTY CO     94-17 63 DRIVE       000000409504
40308101302009RPORIA REALTY TRUST   94-03 63 DRIVE       000000393504
40308600402009RWEINREB MANAGEMENT LL65-61 SAUNDERS STREET000001400002
40308700022008R65-41 BOOTH STREET OW65-41 BOOTH STREET   000002260002
40309714012009RREGO ESTATES         65-20 BOOTH STREET   000000007262
40310100012008RCARRANZA ITALY INC   61-01 WOODHAVEN BOULE000003255004
40310100012009RCARRANZA ITALY INC   61-01 WOODHAVEN BOULE000000735004
40310300302008RDIAZ AUSTIN ASSOCIATE63-34 AUSTIN STREET  000001285004
40310300302009RDIAZ AUSTIN ASSOCIATE63-34 AUSTIN STREET  000001150004
40311100242008RCARLBOURT CONST CORP 88-11 63 DRIVE       000001000002
40311600362009RYUSUPOV ILYA         87-10 63 DRIVE       000000048281
40313600012009R64-57 WOODHAVEN ASSOC64-57 WOODHAVEN BOULE000000824504
40314000042009RTHOMAS A RIPLEY      66-11 WOODHAVEN BOULE000002325004
40315100432008RTHORNTON PL OWNERS IN67-50 THORNTON PLACE 000004360002
40315100432009RTHORNTON PL OWNERS IN67-50 THORNTON PLACE 000003820002
40315400252009RHARVEY COOPERATIVE GA96-09 67 AVENUE      000000720002
40315500552008RBELMONT OWNERS CORP  97-07 67 AVENUE      000000800002
"40316300322009RALLOCCA, WILLIAM     71-74 YELLOWSTONE BLV000015400004"
40316900312008RSIMON MASKIL         99-44 67 ROAD        000001405002
40317000272009R100 QUEENS BLVD CO   100-02 QUEENS BOULEVA000018535004
40317000312009R100 QUEENS BLVD CO LL100-12 QUEENS BOULEVA000004430004
40318300022008R66 92 TENANTS LTD    66-92 YELLOWSTONE BLV000001790002
40319800332008R94 11 69 AV CORP     94-11 69 AVENUE      000001545002
40320700262009RFRANCHISE REALTY INTE98-05 METROPOLITAN AV000002090004
40323600012009RDO RICK ASSOCIATES   105-02 QUEENS BOULEVA000002880004
"40323600182009RARGONAUT HOLDING, INCQUEENS BOULEVARD     000000166004"
"40323600222009RARGONAUT HOLDING, INC105-20 GERARD PLACE  000000910004"
40323810022009RAUSTIN REALTY HOLDING70-21 AUSTIN STREET  000002225004
40323900172008R107 71ST AVENUE LLC  107-25 71 AVENUE     000004210004
"40324000412008RBROCHETELLI, ANDREA  104-01 METROPOLITAN A000000839504"
"40324000412009RBROCHETELLI, ANDREA  104-01 METROPOLITAN A000000805504"
40325300512008RFOREST HILLS INN APTS20 71 AVENUE         000002115002
40325300512009RFOREST HILLS INN APTS20 71 AVENUE         000001090002
40325500442009R72-06 AUSTIN REALTYCO72-06 AUSTIN STREET  000002875004
40325500652008RSTOCKMAN HOLDING COMP72-50 AUSTIN STREET  000000085004
40325500652009RSTOCKMAN HOLDING COMP72-50 AUSTIN STREET  000000140004
40325600012008RCORD MEYER DEVELOPMEN108-18 QUEENS BOULEVA000004200004
40325600012009RCORD MEYER DEVELOPMEN108-18 QUEENS BOULEVA000006000004
40329200282008RMAYFAIR TENANTS CORP 110-21 73 ROAD       000003935002
40329200282009RMAYFAIR TENANTS CORP 110-21 73 ROAD       000002570002
40329300502008R111-15 75 AVENUE OWNR111-15 75 AVENUE     000005235002
40332201052009RMETROPOLITAN 118-80 L118-80 METROPOLITAN A000001550002
40333100072009RJEANNE M. FREDERICKS 84-02 BEVERLY ROAD   000000711002
"40334000132009RGRAND REVIEW, LLC    111-32 76 AVENUE     000006485002"
40334200372008R111-55 77TH REALTRY  111-55 77 AVENUE     000001005002
"40334700242009RHANGARTER, JUDITH G  118-10 QUEENS BOULEVA000003740004"
40335501062008R8300 TALBOT ST OWNERS83-00 LEFFERTS BOULEV000005590002
40335501062009R8300 TALBOT ST OWNERS83-00 LEFFERTS BOULEV000001720002
40336010022008RSILVER TOWERS REALTYC125-10 QUEENS BOULEVA000000074334
40336010022009RSILVER TOWERS REALTYC125-10 QUEENS BOULEVA000000057654
"40337300212009R21-26 MENAHAN STREET,21-26 MENAHAN STREET 000000180002"
40337500332009RINGRAHAM REALTY PROPE49-06 METROPOLITAN AV000000277004
40344300062008RJOHN NIEMAN          2-89 ST NICHOLAS AVEN000000107004
40344300062009RJOHN NIEMAN          2-89 ST NICHOLAS AVEN000000075504
40344400012009R1580 GATES CO        3-24 ST NICHOLAS AVEN000003710004
40345000122009RTUM'S BUILDING LLC   3-57 ST NICHOLAS AVEN000000204504
"40346600152008RDELCIA-MINEA, ELENA  57-24 CATALPA AVENUE 000000171762A"
"40346600152009RDELCIA-MINEA, ELENA  57-24 CATALPA AVENUE 000000268082A"
40349200452009RBILL WOLF PETROLEUM C60-04 METROPOLITAN AV000001089504
40349201552009RGEORGE DEVELOPMENT LLMETROPOLITAN AVENUE  000001294254
40350800232009R59-36 70 AVE HLDG COR59-36 70 AVENUE      000000134502
40353901002008RCOOL FASHIONS OF NEWY10-01 IRVING AVENUE  000000381504
40353901002009RCOOL FASHIONS OF NEWY10-01 IRVING AVENUE  000000318504
40354600012009RARCADE BOOKBINDING CO8-19 WYCKOFF AVENUE  000001164504
40354600062009RARCADE BOOKBINDING CO8-01 WYCKOFF AVENUE  000001148004
"40354900952009R1623 WEIRFIELD,      16-23 WEIRFIELD STREE000002810004"
40355500422008RBARKER BROTHERS INC  1664 SUMMERFIELD STRE000000123004
40355500422009RBARKER BROTHERS INC  1664 SUMMERFIELD STRE000000186004
40356100272008R2478-61 REALTY CORP  920 SENECA AVENUE    000000601504
40356100272009R2478-61 REALTY CORP  920 SENECA AVENUE    000000316004
"40356200152009RDELCIA, ELENA        17-36 WEIRFIELD STREE000000228004"
40360502002009 TERRACE COURT DEVELOP65 LANE              000000768561
40363100012008R69-01 LLC            62-02 CATALPA AVENUE 000000575002
40365200322008R67-11/21 CENTRAL AVEN70-46 67 PLACE       000000396004
40365200322009R67-11/21 CENTRAL AVEN70-46 67 PLACE       000000112504
40366710012009 OWNER / AGENT        72-52 METROPOLITAN AV000000755004
40368600532009RNATIONAL BK OF NO AME70-13 MYRTLE AVENUE  000000375004
40372500302009R56 06 COOPER AV CORP 56-06 COOPER AVENUE  000000250004
40380100502009R79-01 ASSOCIATES LLC 79-51 COOPER AVENUE  000002610004
"40380400912009RATLAS TERMINALS,     70-30 80 STREET      000002190004"
"40380900192009RATLAS TERMINALS,     70-29 83 STREET      000000073504"
"40380900272009RATLAS TERMINALS,     70-17 83 STREET      000000335004"
"40380900412009RATLAS TERMINALS, LLC 83-14 COOPER AVENUE  000001935004"
"40380900472009RATLAS TERMINALS,     84 STREET            000000780504"
"40380900552009RATLAS TERMINALS,     70-32 84 STREET      000000600004"
40381000022009RATLAS TERMINALS AGT  81-80 COOPER AVENUE  000032750004
"40381004202009RD&D REALTY V, LLC    83-12 72 DRIVE       000000915004"
40382900442009RJOHN GAUDINO         79-27 MYRTLE AVENUE  000000566004
40385602042009RA F C ENTERPRISES INC88-81 76 AVENUE      000000282004
40385602052009R76TH AVE RLTY CORP   88-43 76 AVENUE      000000168004
40385602072009R76TH AVE RLTY CORP   88-45 76 AVENUE      000000213004
40385602282009RA F C ENTERPRISES INC88-25 76 AVENUE      000000396004
40385602312009RLOUIS LEHRBAUM       88-19 76 AVENUE      000000130504
40385701832009RALBERT RASTETTER     88-16 77 AVENUE      000000152504
40385703002009RSHS WOODHAVEN LLC    76-02 WOODHAVEN BOULE000004245004
40386601702008RMICHELE COHEN INC    83-34 WOODHAVEN BOULE000000101004
40388600742008RHOME DEPOT U S A INC 75-11 WOODHAVEN BOULE000016000004
40388600742009RHOME DEPOT U S A INC 75-11 WOODHAVEN BOULE000023650004
40396600262008RDARHILL CORP         9-01 COLLEGE POINT BL000001085004
40399700012008RTHE GREENPOINT SAVING122-03 14 AVENUE     000001383004
"40401200312009RCIAMPA WHITEPOINT, LL13-26 133 PLACE      000000058201B"
"40401200432008RCIAMPA WHITEPOINT, LL132-29 14 AVENUE     000000270504"
40404700012008RNAB CONSTRUCTION CORP112-20 14 AVENUE     000000300004
40404700012009RNAB CONSTRUCTION CORP112-20 14 AVENUE     000000255004
40406900062009RVM HOLDING CORPORATIO14-50 118 STREET     000000430004
40407000462009R1453 118 STREET INC  14-53 118 STREET     000000069504
40408300402009RC J HOLDING CORP     18-48 122 STREET     000000120604
"40408400132009REVS REALTY, LLC      15-07 122 STREET     000001615504"
40410000012009RFRAMA HOLDING CORP   130-22 14 AVENUE     000000540004
40411600162009RAMORUSO DOMINICK     15-11 130 STREET     000000608504
40411600202009RCEV REALTY CORP      15-01 130 STREET     000000133004
40412500012008RGREATER NEW YORK AUTO139-10 15 AVENUE     000013495004
40412500012009RGREATER NEW YORK AUTO139-10 15 AVENUE     000027895004
40412700202008RGREATER NEW YORK AUTO15 AVENUE            000002520004
40412700202009RGREATER NEW YORK AUTO15 AVENUE            000005760004
"40412800012009RALF PROPRIETA, LLC   18-53 COLLEGE POINT B000000052504"
40414300252008R                     136-15 20 AVENUE     000003595004
40414300252009R                     136-15 20 AVENUE     000006250004
40414300602009RRELATED RETAIL MGMT C20 AVENUE            000004600004
40416400332009RJOHANN WILLIAM       21-02 COLLEGE POINT B000000261004
40417200062008RCOLLEGE POINT HOLDING127 STREET           000000072604
40417200062009RCOLLEGE POINT HOLDING127 STREET           000000072604
40417200072009RCOLLEGE POINT HOLDING20-07 127 STREET     000001205004
40417200352008RCOLLEGE POINT HOLDING128 STREET           000000263004
40417200352009RCOLLEGE POINT HOLDING128 STREET           000000263004
40419100942009RBRIDGE VIEW RTY CORP 143-10 20 AVENUE     000001955004
40419400092009RDANICA-COLLEGE POINT 22-12 119 STREET     000000741504
40422500282009RSTANHOPE REALTY CORP.23-14 COLLEGE POINT B000000930004
40423400302009R23-15 129TH STREET RE129-10 23 AVENUE     000000200504
40429200442009RJUSSARAJAC    .      27 AVENUE            000000407004
40431500502009RNEW YORK SP LLC      28-24 119 STREET     000002385004
40436200242008RTRIANGLE EQUITIES/WHI30-56 WHITESTONE EP S000002675004
40436200242009RTRIANGLE EQUITIES/WHI30-56 WHITESTONE EP S000006365004
40438600012008RE & E ENTERPRISES OFN31-55 COLLEGE POINT B000005450004
40438600012009RE & E ENTERPRISES OFN31-55 COLLEGE POINT B000006575004
40438700012009RWHITESTONE EXPRESSWAY3140 WHITESTONE EP SR000012200004
40440000012009RLEFFERTS OIL TERMINAL31-70 128 STREET     000000625004
40440600902008RDURANTE CONSTRUCTION 133-40 31 DRIVE      000001505004
40440600902009RDURANTE CONSTRUCTION 133-40 31 DRIVE      000001550004
40440800112008RA & R LOBOSCO INC    31-33 FARRINGTON STRE000000112004
40440800112009RA & R LOBOSCO INC    31-33 FARRINGTON STRE000000400004
"40440800232009RPMO, LTD             135-02 FARRINGTON STR000001200004"
40450500312008RROSIN RICHARD        12-48 150 STREET     000000223504
40450500442009RJNP REALTY CORP.     149-41 14 AVENUE     000001246504
"40451800202009RDRACULON, INC.       150-32 12 ROAD       000000456504"
40451800212009R12TH ROAD & CLINTONVI150-36 12 ROAD       000000270004
40451800462009RWEINER DAVID B       150-37 14 AVENUE     000000197504
40453000122009RBONDEE ENTERPRISES IN151-01 14 AVENUE     000001690004
"40453800762009RM&A POL, LLC         11-14 154 STREET     000000269504"
40453800782009RT. POL LLC           11-20 154 STREET     000000056004
"40456800842009RDENICKER, TAMARA     15719 CROSS ISLE PKWY000000037781"
40457400412008RCRYDER POINT OWNERS C162-01 POWELLS COVE B000004056502
40457400612008RCRYDER POINT OWNERS C162-21 POWELLS COVE B000004056502
40457400712008RCRYDER POINT OWNERS C162-41 POWELLS COVE B000004056502
40465800222009RJABERI ZULMAI        147-34 23 AVENUE     000000026851
"40466200382009R149-58 REALTY CO.,   149-58 CROSS ISLD PKW000000710004"
"40467800192008RZEDLOVICH, THOMAS S  150-12 14 AVENUE     000001560004"
"40467800192009RZEDLOVICH, THOMAS S  150-12 14 AVENUE     000000795004"
40473100082009RD CAZZORLA           18-01 154 STREET     000000092892A
40478100012008RLINDEN HILL COOP NO 326-15 PARSONS BOULEVA000001391002
40478200012008RLINDEN HILL COOP NO 327-05 PARSONS BOULEVA000000214002
40490400012008RMARINO PETER         163-01 29 AVENUE     000000430004
40490400012009RMARINO PETER         163-01 29 AVENUE     000000205004
40494200012009RDOLPHIN PROPERTIES LL35-10 NORTHERN BOULEV000001071004
40494200102009RDAME REALTY LLC      34-66 COLLEGE POINT B000000335504
40494200172009RDAME REALTY LLC      34-32 COLLEGE POINT B000000802504
40494300622008RGOLDEN OLDIES LTD    132-29 33 AVENUE     000000211504
40494300622009RGOLDEN OLDIES LTD    132-29 33 AVENUE     000000391504
"40494500872008RMC DERMOTT, KEVIN    132-18 35 AVENUE     000000439504"
"40494500872009RMC DERMOTT, KEVIN    132-18 35 AVENUE     000000615004"
40494601062009RNORTHERN COLLINS CORPCOLLINS PLACE        000000060504
40494601072009RNORTHERN COLLINS CORP132-56 34 AVENUE     000000172504
40494601112009RNORTHERN COLLINS CORP132-60 34 AVENUE     000001169004
40494900842009RA & S WHITESTONE NURS33-15 PRINCE STREET  000000959004
40495000102009RFOUR J CONTRACTING CO33-61 FARRINGTON STRE000000143004
40495600132009RQPII-139-06/12/18 34 139-06 34 ROAD       000002650002
40495700232009RQPII-139-09 34 ROAD L139-09 34 ROAD       000000615002
40495700802009RVISALO REALTY LLC    139-19 34 ROAD       000000450002
"40496100152009RB & S MANAGEMENT, LL 138-06 35 AVENUE     000001519272B"
40496200262009RCOLLEGE POINT BLVD REJANET PLACE          000000677004
40496300752009RCOLLEGE POINT BLVD RE37-52 COLLEGE POINT B000002750004
40497202382009R238 PRINCE SQUARE LLC133-50 37 AVENUE     000001785004
40497400412009RSAMUEL L NUSBAUM INC 37-20 MAIN STREET    000001120004
40497400562009RLEE NANCY            135-19 38 AVENUE     000000104002A
40497600142009RHOOSHANG ANVAR       135-19 ROOSEVELT AVEN000001885004
40497600512008RMELROSE LLC          39-06 MAIN STREET    000002455004
40497700062008R36-51 MAIN ST REALTYC36-51 MAIN STREET    000000150004
40497700062009R36-51 MAIN ST REALTYC36-51 MAIN STREET    000000460004
"40497700092008RPETTY, GAIL P        36-37 MAIN STREET    000000240004"
40497700322008RCLKS CORP            137-28 NORTHERN BOULE000000173504
40497700322009RCLKS CORP            137-28 NORTHERN BOULE000000245504
40497700802009RJAC SAL REALTY CO. L 136-65 37 AVENUE     000001705004
40497700882008R37 MANAGE4MENT CORP  136-51 37 AVENUE     000000470004
40497700882009R37 MANAGE4MENT CORP  136-51 37 AVENUE     000000245004
40497701992009RCIAMPA M3 LLC        37 AVENUE            000000572504
40497800062008RNEW FLUSHING RLTY/COR37-09 MAIN STREET    000000260004
"40498000052009RGERSON, FREDERICK E  39-01 MAIN STREET    000002110004"
40498000552008RJOSEPH RUBENFELD     136-75 ROOSEVELT AVEN000001020004
"40499400512008RSUH, KWANG I         34-20 PARSONS BOULEVA000007125002"
"40499400512009RSUH, KWANG I         34-20 PARSONS BOULEVA000002310002"
40499400782008R139-55 35TH REALTY LL139-55 35 AVENUE     000000840002
40499400782009R139-55 35TH REALTY LL139-55 35 AVENUE     000000975002
40499490012009R                     UNION STREET         000008778804
40499500582008RPAVILLION OWNERS CORP144-63 35 AVENUE     000000700002
40499500582009RPAVILLION OWNERS CORP144-63 35 AVENUE     000001255002
40500200742009R141-57 NORTHERN BLVD 141-57 NORTHERN BOULE000003895004
"40500200822009RGANG W. REALTY, INC. 141-47 NORTHERN BOULE000004725004"
"40500300012008RNORTHERN & PARSONS,LL144-01 PARSONS BOULEV000008695004"
40500300512008RFLUSHING SAVINGS BANK144-51 NORTHERN BOULE000001924004
40500300512009RFLUSHING SAVINGS BANK144-51 NORTHERN BOULE000001789004
"40500501342009RCHEN, ANNIE          148-08 35 AVENUE     000000169402A"
40500600222008RKASMAK REALTY LLC    149-09 NORTHERN BOULE000001000002
40500600222009RKASMAK REALTY LLC    149-09 NORTHERN BOULE000000825002
40500600262008RBRATELLI REALTY CORP 149-01 NORTHERN BOULE000001040004
40500600262009RBRATELLI REALTY CORP 149-01 NORTHERN BOULE000000275004
40501000632008RHECUBA HOLDING CORP  36-40 BOWNE STREET   000003930002
40501000892009RCHIU JOELLE          142-03 37 AVENUE     000000400004
40501200262008RMARTIN ADAMS         141-12 NORTHERN BOULE000000460004
40501200262009RMARTIN ADAMS         141-12 NORTHERN BOULE000000460004
40501200332009RNATIONAL MEMORIAL CHA141-26 NORTHERN BOULE000001665004
40501400042009RFLUSHING GERIATRIC R/36-17 PARSONS BOULEVA000004250004
40501600392008RSILVER OAK REALTY GRO147-34 NORTHERN BOULE000000695004
"40501900832008RMADISON PLAZA HOMES,I40-38 UNION STREET   000000460004"
"40502000082008RUCB MERGER II, LLC   38-05 UNION STREET   000001095004"
40502000342009RDON RICK ASSOCIATES  142-41 38 AVENUE     000002400004
40502200182008RHERITAGE HOUSE L.L.C.143-18 38 AVENUE     000004245002
40502200182009RHERITAGE HOUSE L.L.C.143-18 38 AVENUE     000003480002
"40502600242009RJMK PROPERTY ONE, LLC147-30 38 AVENUE     000000680002"
40502711252009 PETER HOLDING        147-48 ROOSEVELT AVEN000000143004
40503200182009RNORTHERN BOULEVARD JO150-02 NORTHERN BOULE000001285004
40503600412009RFRANCHISE REALTY INTE40-18 MAIN STREET    000000570004
40504000192008RSANFORD AVENUE REALTY132-35 SANFORD AVENUE000002110002
40504100162008RNAN ASSOCIATES LLC   133-38 41 AVENUE     000000333004
40504100162009RNAN ASSOCIATES LLC   133-38 41 AVENUE     000000333004
40504310022008RSANFORD COURT APT COR136-05 SANFORD AVENUE000000690002
40504310022009 SANFORD COURT APT COR136-05 SANFORD AVENUE000001095002
40504900062009RGREEN PARK SUSSEX APA143-06 BARCLAY AVENUE000000710002
40505100012008RCORAL GARDENS OWNERS 144-07 SANFORD AVENUE000000990002
40505400062009RTIN YUE CORP         149-13 BARCLAY AVENUE000000302262A
40505400102009RNEW HONG SING CORP   149-07 BARCLAY AVENUE000000302262A
40506606222008RHOME DEPOT U S A INC 131-33 AVERY AVENUE  000070350004
40506606222009RHOME DEPOT U S A INC 131-33 AVERY AVENUE  000051900004
40506606912008RGAK PROPERTIES CORP  131-74 MAPLE AVENUE  000000124004
40506606912009RGAK PROPERTIES CORP  131-74 MAPLE AVENUE  000000056504
40507600142008RMCPJF INC            131-47 FOWLER AVENUE 000000982504
40507600142009RMCPJF INC            131-47 FOWLER AVENUE 000000279004
"40510100012009RMAPLE AVENUE, LLC    42-15 MAPLE AVENUE   000000505002"
"40510100712009RMAPLE AVENUE, LLC    132-17 MAPLE AVENUE  000000300002"
40512400022009REPCOT REALTY LLC     134-17 CHERRY AVENUE 000005640002
"40513410012009RLIN, CHING HO        42-20 KISSENA BOULEVA000000078972"
40513413012008RCHINA TRUST BANK OF N41-99 MAIN STREET    000000311854
40513413012009RCHINA TRUST BANK OF N41-99 MAIN STREET    000000234224
40513600082008RHKAL PRINCE CHARLESLI42-45 MAIN STREET    000000405002
40518000592008RHEWLETT ASSOCIATES   140-35 FRANKLIN AVENU000002030002
40518000592009RHEWLETT ASSOCIATES   140-35 FRANKLIN AVENU000001695002
40518100402009RABDEL RLTY CORP.     41-62 BOWNE STREET   000000840004
40518200332009RKLF REALTY CORP.     142-44 FRANKLIN AVENU000000140692A
40519211012009R                     43-22 UNION STREET   000000307744
"40521200172009RHAN, YUNSUNG         46-32 BURLING STREET 000000265001"
40521200182009R                     46-34 BURLING STREET 000000364001
40521200192009R                     46-36 BURLING STREET 000000284001
"40526500052009RW & W INTERNATIONAL, 154-05 NORTHERN BOULE000000325004"
40527100232009RRACCASI PETER        35-15 155 STREET     000000262002B
"40528500272009RMALWON, LLC          163-07 DEPOT ROAD    000000595004"
"40529200042008RLILI EQUITIES, LLC   168-09 CROCHERON AVEN000000629502"
40531100012008RUTOPIA TENANTS CORP  190-05 39 AVENUE     000001141002
40532300052009RHEINRICH GEORGE F    170-16 39 AVENUE     000001556004
40532302192009RDLC PROPERTIES LLC   170 STREET           000001100004
40532400032009RPETRONE NUNZIA       190-17 STATION ROAD  000000360004
40532400552008RZACH ASSOCIATES      189-20 39 AVENUE     000000131004
"40532500652008RTZORIS, ELENI        192-02 39 AVENUE     000001570002"
"40535400292009RWANG, KENNY          40-05 189 STREET     000000036301"
40535600152009RVOUZAKIS HOLDING CORP40-30 192 STREET     000000049292A
40535600192009RNIKOLAOS SAMARAS     40-18 192 STREET     000000068002A
40536800012009RFUNERALS BY FREDERICKNORTHERN BOULEVARD   000000295504
40536800032009RFREDERICK SERV INC   192-05 NORTHERN BOULE000000313004
"40539300052009RJEON, SOO CHUL       42-37 162 STREET     000000477504"
40539300062009RS JEON LLC           42-35 162 STREET     000000477504
40541600442008RMICHAEL SIMICICH     43-12 159 STREET     000000671502
"40542000292009RKWON, MAL SUK        43-07 162 STREET     000000190082A"
40543500492009RC & B VENTURE CORP.  156-18 45 AVENUE     000000864504
40546100302009RFLUSHING CEMETARY    162-06 46 AVENUE     000001141004
40551000012008RRAPHAN CORP          171-50 NORTHERN BOULE000000745004
40551000012009RRAPHAN CORP          171-50 NORTHERN BOULE000000430004
40552000272009RNCD REALTY CO.       196-56 NORTHERN BOULE000000699004
40552800062009RFATHER & FOUR SONS EN46-01 HOLLIS COURT BL000003045004
40569200342008R58-48 189TH STREET   58-48 189 STREET     000000364504
40569200342009R58-48 189TH STREET   58-48 189 STREET     000000301504
40570600062009RCROSS-PATH REALTY CO 198-15 HOR HARDING EP000005250004
40575400222008R20-02 UTOPHIA PKWY   20-02 UTOPIA PARKWAY 000000405504
40575400252008R                     20-10 UTOPIA PARKWAY 000000078794
40575400252009R                     20-10 UTOPIA PARKWAY 000000552004
40602500382008RBAYSIDE 88 CORP      32-61 FRANCIS LEWIS B000000168004
40607400412008RSALVATORE G AMORELLI 33-33 FRANCIS LEWIS B000000101504
40607400412009RSALVATORE G AMORELLI 33-33 FRANCIS LEWIS B000000124004
40608500252008R35TH AVE BAYSIDE INC 203-01 35 AVENUE     000002570002
40608900252008RJUNG WON LEE         204-05 35 AVENUE     000005060002
40617100012008RBELLCOURT OWNERS  INC36-06 213 STREET     000000955002
"40617200062008R36-08 BELL REALTY,   36-08 BELL BOULEVARD 000010100002"
40617200212009R36-30 BELL REALTY LLC36-30 BELL BOULEVARD 000001034504
40617300522009RPERULLI FAMILY PARTNE35-13 BELL BOULEVARD 000000375004
40620500012009R20215 APARTMENTS CORP202-15 42 AVENUE     000003425002
40625800012008RAKI ACQUISITION CORP 42-05 FRANCIS LEWIS B000000265504
40625800012009RAKI ACQUISITION CORP 42-05 FRANCIS LEWIS B000000175504
40625800482009RGAP REALTY CORP      FRANCIS LEWIS BLVD   000000897004
40627100382009RGLASSER MARVIN       207-03 43 AVENUE     000000036941
"40628700012008RFAMTAN, L.L.C.       43-20 BELL BOULEVARD 000003388004"
"40628700012009RFAMTAN, L.L.C.       43-20 BELL BOULEVARD 000001706004"
"40628700152009RFAMTAN,              43-26 BELL BOULEVARD 000001450004"
"40628700172009RFAMTAN, L.L.C.       43-06 BELL BOULEVARD 000000340004"
40628800412009RMONAHAN JOHN P       214-11 41 AVENUE     000000147602A
"40629800022009RGEM ASSOCIATES, A LIM42-35 BELL BOULEVARD 000000945004"
"40629800052009RGEM ASSOCIATES, A LIM42-31 BELL BOULEVARD 000000461504"
40629800422009R214 PLACE REALTY     42-28 214 PLACE      000001419702B
"40630800012008RPARKER GREENFIELD, LL215-04 43 AVENUE     000001035002"
"40630800012009RPARKER GREENFIELD, LL215-04 43 AVENUE     000000517502"
40630900332009RMARY MINDEL AS TRUSTE215-29 NORTHERN BOULE000000842504
40632700012008RADRIA I              221-17 NORTHERN BOULE000000970004
40632700012009RADRIA I              221-17 NORTHERN BOULE000000610004
40632800102009RSOON AE KWON         43-19 222 STREET     000000016401
40635700072008RLAFIURA DEVELOPMENTCP132-15 57 AVENUE     000000281502A
40635700072009RLAFIURA DEVELOPMENTCP132-15 57 AVENUE     000000464022A
40635700082008R                     132-17 57 AVENUE     000000281502A
40635700082009R                     132-17 57 AVENUE     000000464022A
40640100402009RGARDENA HOLDING CO. L139-09 58 AVENUE     000000255004
"40644100442008RMORCOS, MARCELLE M.  153-01 HOR HARDING EP000000760502"
"40644100442009RMORCOS, MARCELLE M.  153-01 HOR HARDING EP000000424002"
40649800422009RDASHRON REALTY CORP  69-38 MAIN STREET    000000450004
40653200022009RURSTADT BIDDLE PROPER67-03 MAIN STREET    000000795004
40661600372009RJEWEL AVE LLC        69-54 MAIN STREET    000002020004
40662600622008RNEW YORK COMMUNITY BA75-44 VLEIGH PLACE   000000365004
40662600622009RNEW YORK COMMUNITY BA75-44 VLEIGH PLACE   000000590004
40663400012009RDELTA KEW HOLDING COR139-01 GRAND CENTRAL 000006685004
40664500592009RBABAYEV MANASHE      147-19 JEWEL AVENUE  000000014271
40668400022008RKEW REALTY LLC       147-09 75 ROAD       000001480002
40668400022009RKEW REALTY LLC       147-09 75 ROAD       000000715002
40669100862009RKC UNION TPK MANAGEME149-01 UNION TURNPIKE000000255004
40671300012008R150-18 28 UNION TPKE 150-10 UNION TURNPIKE000001840004
40671300012009R150-18 28 UNION TPKE 150-10 UNION TURNPIKE000001870004
40673100342008RHAROLD BYER          59-01 KISSENA BOULEVA000000108004
40673100342009RHAROLD BYER          59-01 KISSENA BOULEVA000000337504
"40679301262008RPOMONOK, L.L.C.,     154-02 71 AVENUE     000002575002"
"40679301262009RPOMONOK, L.L.C.,     154-02 71 AVENUE     000001585002"
40679302312009RURSTADT BIDDLE PROPER157-07 72 AVENUE     000004030004
40680500022008RMARINE MIDLAND GRACE AGUILAR AVENUE       000000199504
40680500022009RMARINE MIDLAND GRACE AGUILAR AVENUE       000000199504
40680500092008RHSBC BANK USA        156-02 AGUILAR AVENUE000000201504
40680500092009RHSBC BANK USA        156-02 AGUILAR AVENUE000000422004
40680500452009RFRED KARMIN          72-69 KISSENA BOULEVA000000305004
40681700322009RPALMANNA REALTY CORP 154-09 UNION TURNPIKE000000476004
40682200202009RHERON REAL ESTATE CO 73-15 PARSONS BOULEVA000000411004
40684800012008RBAKER TRIPI RLTY     76-36 164 STREET     000000542504
40684800012009RBAKER TRIPI RLTY     76-36 164 STREET     000000529004
40685200112009RRENEE OWNERS INC     78-34 164 STREET     000004920002
40689600122009RHOK HOI KO           61-41 168 STREET     000000084002A
"40689600132009RZHANG, QING A.       61-39 168 STREET     000000124002A"
40689600142009RYUKWAN LLC           61-37 168 STREET     000000120002A
40696700282009RZIARI 75 REALTY CORP 76-15 164 STREET     000000611004
40696900012009RTIMER WARNER ENTERTN/76-41 164 STREET     000000287504
40706700152009RHORACE HARDING REALTY183-15 HOR HARDING EP000006230004
40706700652009RHORACE HARDING REALTY183-07 HOR HARDING EP000000196504
40707300012009RESCO HOLDING CORP    184-02 HOR HARDING EP000001190004
40711700072008RJOHN D & CATHERINE TM195-05 69 AVENUE     000000580004
40720800362009RGREENTREE HOLDING COR92-03 UNION TURNPIKE 000000650004
"40727100462009 ARANBAEV, ILANA      81-31 189 STREET     000000102511"
40730500532009RPARMA TITLE MOS/MARB/NORTH BOULEVARD      000000960004
40736200292009RFRANK DE MAIO        48-44 204 STREET     000000085504
40773200502008RWINDSOR PARK ASSOCIAT73-36 BELL BOULEVARD 000003590004
40800501802009RPRITAM PROPERTIES    241-07 JAMAICA AVENUE000000760004
40809200392009R241-15 NORTHERN BLVDC241-15 NORTHERN BOULE000000261504
40810000022009RWELLESLEY GARDENS OWN42-30 DOUGLASTON PARK000001245002
"40810500392008RPLISKIN, SOFYA       240-68 DEPEW AVENUE  000000088881"
"40810500392009RPLISKIN, SOFYA       240-68 DEPEW AVENUE  000000132601"
40812900012009RT & R ASSOCIATES     250-09 NORTHERN BOULE000001070004
40812900532009RETKIND  JUDITH       252-29 LITTLE NECK PA000003020004
40813610112009RWESTMORELAND ASSOC   40-01 LITTLE NECK PAR000000270734
40816400222009RJOHNS AUTO SERVICE IN231-06 NORTHERN BOULE000000413544
40816401222009RJOHNS AUTO SERV STAT NORTHERN BOULEVARD   000000108504
"40817900012008RNORTHERN LLC,        242-30 NORTHERN BOULE000001135004"
40826000092009RS.T.T. REALTY CORP.  253-22 NORTHERN BOULE000001797004
"40826100852009RLRPI MANAGEMENT, LLC 46-21 LITTLE NECK PAR000000176504"
"40827600022009RMAGGIO, JO-ANN F     242-06 HOR HARDING EP000004580002"
40827600102009RPLAZA INVESTMENTS    244-24 57 DRIVE      000003170002
"40827600202009RREILLY, JASON V      244-08 HOR HARDING EP000004140002"
40827600302009RSOL GOLDMAN INVESTME 246-11 57 DRIVE      000002470002
"40839300012008RPEA ENTERPRISES, L.P.60-15 LITTLE NECK PAR000027900004"
"40839300012009RPEA ENTERPRISES, L.P.60-15 LITTLE NECK PAR000022950004"
"40839300252008RPEA ENTERPRISES, L.P.59-25 LITTLE NECK PAR000004540004"
"40839300252009RPEA ENTERPRISES, L.P.59-25 LITTLE NECK PAR000002560004"
40839902332009RJOE YUK LEE          264-17 60 AVENUE     000000355801
40848900012008RNORTH SHORE TOWERS AP269 GRAND CENTRAL PKW000119125002
40848900012009RNORTH SHORE TOWERS AP269 GRAND CENTRAL PKW000266330002
40849600552008RUNITED PROPERTIES COR248-01 UNION TURNPIKE000000515004
40849600552009RUNITED PROPERTIES COR248-01 UNION TURNPIKE000000380004
40855500602008RDAWSON NORMAN        77-40 HEWLETT STREET 000000630004
40855500602009RDAWSON NORMAN        77-40 HEWLETT STREET 000000515184
"40856600422009RDURJAN, SIVAT S.     80-61 252 STREET     000000008881"
40860701852009RRUECK REALTY L.P.    253-10 HILLSIDE AVENU000000618004
40866200412008RNEW YORK COMMUNITY BA247-53 JAMAICA AVENUE000000461504
40866200412009RNEW YORK COMMUNITY BA247-53 JAMAICA AVENUE000000425504
40866801302009RTWENTY-SEVEN SAC SELF251-37 JAMAICA AVENUE000000300004
"40867400132009R271 UNION TURNPIKE, L271-02 UNION TURNPIKE000000540004"
"40869000712008RSHONA,               253-15 80 AVENUE     000001575504"
"40869400292009RPULINAT, JOHN        79-06 258 STREET     000000027001"
40870900352009RGUILFOYLE THOMAS M   80-15 LITTLE NECK PAR000000208504
40877000082009RCHARLES SCATURRO&SON/258-01 HILLSIDE AVENU000000228004
40878200632008RSTUART LEDERMAN      254-10 HILLSIDE AVENU000001104504
40886900352009RUSEROWITZ SYDELL     90-01 JAMAICA AVENUE 000000141504
40888700172008RDEVENDRA K INC       94-46 85 ROAD        000008310002
40890500472009RADELSTEIN REALTY LLC 87-17 76 STREET      000000300504
40907500492009R97-46 99TH ST REALTYC97-46 99 STREET      000000081004
40907700252009RCHEZ REALTY LLC      101-16 77 STREET     000004995004
40907800652008RBUDHU JAGDEO         77-02 101 AVENUE     000001555004
"40911500392008RPOLIZZOTTO, ALFRED   103-54 94 STREET     000005155004"
"40911500392009RPOLIZZOTTO, ALFRED   103-54 94 STREET     000005975004"
40912000432009R103-55 LLC           103-55 97 STREET     000005611502
"40912000482009R103-45,LLC           103-45 97 STREET     000002805002"
40912000522009R103-35 LLC           103-35 97 STREET     000004236002
40915600142009RDURGADEEN JASSODRA   107-14 92 STREET     000000025261
40917500472009RFOUR Z MGMT INC      109-04 98 STREET     000000111004
40923000662009RKEW-MET LLC          119-37 METROPOLITAN A000000495002
40923100132009RNORTHERN GROVE LLC   119-40 METROPOLITAN A000002000002
40923400442008RSTEVEN HOUSE OWNERS I84-25 118 STREET     000000425002
40923500232009RRICHLEY ESTATES (CO P84-38 120 STREET     000001955002
"40924700012008RDALE REALTY CO.,    ,84-17 125 STREET     000003000002"
"40924700012009RDALE REALTY CO.,    ,84-17 125 STREET     000002000002"
"40926100172009RLEMANSKI, ZDZISLAW   85-24 LEFFERTS BOULEV000000108002A"
40926200922009RHF PROPERTIES CORP   117-33 MYRTLE AVENUE 000002530004
40928200262009RBALKAN BROTHERS HOLDI130-01 JAMAICA AVENUE000000208504
40928800132009RFRANCISCAN CONSTRUCT/102-28 JAMAICA AVENUE000000548392A
40931300462009RROADWORKS LTD        104-37 ATLANTIC AVENU000000522004
40931801332009RYUSUPOV INC.         91-71 111 STREET     000000034104
40932600042009ROXILAS FRITZNER      116-10 JAMAICA AVENUE000000331504
40932900612009RFARRELL RICHARD E    87-71 LEFFERTS BOULEV000000815004
40932900752009RD'URSO FLORENCE      87-25 LEFFERTS BOULEV000001950004
"40933000752009RD'URSO, FLORENCE     121 STREET           000001554164"
40933200012009RKMB MECHANICAL CORP  123-02 JAMAICA AVENUE000000068322A
40933500072009RBALKAN BROTHERS HOLDI126-20 JAMAICA AVENUE000000800534
40933700192008R1490 EAST NEW YORK AV87-28 130 STREET     000000564504
40935700012008RDIMITRIOS PANAGIOTOV 89-29 130 STREET     000001754504
40935700012009RDIMITRIOS PANAGIOTOV 89-29 130 STREET     000000530504
40939200052009RGURJAIPAUL REALTY LLC108-12 ATLANTIC AVENU000000070104
40939200062009RGURJAIPAUL REALTY LLC108-14 ATLANTIC AVENU000000063904
40940500352008RLOUIS GELATO         103-05 101 AVENUE    000000271504
40945600212009R101ST AVENUE PARTNERSLEFFERTS BOULEVARD   000000509504
40945600222009R101ST AVENUE PARTNERS118-09 101 AVENUE    000001050004
40948600112008RVILLA RUSSO RISTORANT101-14 LEFFERTS BOULE000001270004
40948600112009RVILLA RUSSO RISTORANT101-14 LEFFERTS BOULE000000640004
40949000012009RPICK QUICK FOODS INC 123-10 101 AVENUE    000001130004
40950300502009RKO  CHUN KAU         135-05 LIBERTY AVENUE000000216004
40950700392009RG.G.G. LIBERTY ASSOCI103-09 LIBERTY AVENUE000003085004
40953400092009RCHASE MANHATTAN BANK 111-18 LIBERTY AVENUE000000358504
40955600252009RNORTH FORK BANK      103-42 LEFFERTS BOULE000001500004
"40955600262009RJPMORGAN CHASE BANK, LEFFERTS BOULEVARD   000000234004"
40955700422009RGELTMAN RLTY CORP    119-05 LIBERTY AVENUE000000548004
40955700502008R115-15 101ST AVE REAL103-31 LEFFERTS BOULE000002940004
40955900362009RFGP WEST STREET LLC  121-11 LIBERTY AVENUE000001345004
"40956000332008RSSSS ENTERPRISES, LL 123-03 LIBERTY AVENUE000000410004"
"40957300762008ROSHER, SARA          104-17 LEFFERTS BOULE000000250612A"
"40957300762009ROSHER, SARA          104-17 LEFFERTS BOULE000000386652A"
40957800032009RLUDWIG LAWRENCE B    124-04 LIBERTY AVENUE000000202504
40962000012009REXXON MOBIL CORPORATI138-50 HILLSIDE AVENU000000892504
40962100232009R                     134-11 KEW GARDENS RO000002465004
40962500062008RSIDHDHY VINAYAK CORP 139-06 QUEENS BOULEVA000001820004
40962500062009RSIDHDHY VINAYAK CORP 139-06 QUEENS BOULEVA000001820004
40962600442009RVICTOR GOLDSMITH & CO138-43 HILLSIDE AVENU000002405004
40964900422009RBRIARWOOD GROUP LLC  138-11 QUEENS BOULEVA000000138504
40965100662009RBRIARWOOD GROUP LLC  137-67 QUEENS BOULEVA000000815004
40967600132009R8930 SUTPHIN BOULEVA 89-18 SUTPHIN BOULEVA000000850004
40967600272008RDIONYSIOS VLACHOS    90-18 SUTPHIN BOULEVA000000077504
40967600272009RDIONYSIOS VLACHOS    90-18 SUTPHIN BOULEVA000000766004
40967801092009RQUEENS CO BAR ASN FUN90-35 148 STREET     000000542504
40968600102008R88-15 144 ST LLC     88-15 144 STREET     000001005002
40968900012009RHULASIE TULSIE       87-97 144 STREET     000000441002
"40969000182008RMANNIX, JAMES J.     87-84 SUTPHIN BOULEVA000000226504"
"40969000182009RMANNIX, JAMES J.     87-84 SUTPHIN BOULEVA000000460504"
40969200452009RSHARE EQUITIES CORP  87-87 SUTPHIN BOULEVA000000630002
40969500012008R150 TAFT HOLDING LLC 150-02 88 AVENUE     000000450002
40969500012009R150 TAFT HOLDING LLC 150-02 88 AVENUE     000000765002
40969800272009RVIOLA SAMUEL         139-01 HILLSIDE AVENU000005040004
40971400182008RDAVIS JOSR R         141-05 PERSHING CRESC000002385002
40971400182009RDAVIS JOSR R         141-05 PERSHING CRESC000002730002
40975400342009RPARSCO RLTY CP       155-33 JAMAICA AVENUE000001760004
40975400482009RROXY ASSOCIATES LLC  153-25 JAMAICA AVENUE000005425004
"40975400542008RPARTNERSHIP 2000, L.P153-11 JAMAICA AVENUE000002540004"
"40975400542009RPARTNERSHIP 2000, L.P153-11 JAMAICA AVENUE000005495004"
"40975400562008RPARTNERSHIP 2000, L.P153-07 JAMAICA AVENUE000002380004"
"40975400572008RPARTNERSHIP 2000, L.P153-01 JAMAICA AVENUE000005775004"
"40975400572009RPARTNERSHIP 2000, L.P153-01 JAMAICA AVENUE000002625004"
40975500502008RTENSHORE REALTY LTD  155-01 90 AVENUE     000000655002
40975500502009RTENSHORE REALTY LTD  155-01 90 AVENUE     000000700002
40975600012009RPARSONS DEVLOPMENT CO159-01 JAMAICA AVENUE000000720004
40975700102009RLASTIHENOS PAUL      90-27 160 STREET     000000327004
40976300172009RK&N PROPERTIES CORP  153-12 HILLSIDE AVENU000002610004
"40976300292009RJAMAICA TWINS REALTY,153-36 HILLSIDE AVENU000000128902A"
40976300422009RCHIOS 14TH AVE REALTY87-92 PARSONS BOULEVA000000945004
40977300052009RBELCREST APARTMENTS  162-15 HIGHLAND AVENU000002720002
40978900112009RAPACHE REALTY LLC    84-01 PARSONS BOULEVA000001285004
40979200312009RAUTO SERVICE MANAGEME161-37 84 ROAD       000001544504
"40979400202008RGOODWIN REALTY, LLC  164-07 JAMAICA AVENUE000001585004"
40979500072008R16501 JAMAICA AVENUE 165-09 JAMAICA AVENUE000002505004
40979500092008R16501 JAMAICA AVENUE 165-03 JAMAICA AVENUE000000538004
40979500102008R16501 JAMAICA AVENUE 165-01 JAMAICA AVENUE000000630004
40979500112008R16501 JAMAICA AVENUE 89-73 165 STREET     000000203504
40979600152008RALBERT/ROBERT DWECK  166-05 JAMAICA AVENUE000001780004
40979600192008RJVAA REALTY CORP.    166-01 JAMAICA AVENUE000000410004
40979800392008RBLACKSTONE ARMS REALT166-40 89 AVENUE     000001465002
40979800392009RBLACKSTONE ARMS REALT166-40 89 AVENUE     000001285002
40981400062009RHORIZON HOUSE CO LLC 88-35 164 STREET     000000360002
40983700212009RIDEAL MONTESSORI SCHO87-41 165 STREET     000001110004
40983700962009RMOHAMMED SHAMSUL ISLA87-20 166 STREET     000000106671
40983700982009RMOHAMMED NURUL ISLAM 87-22 166 STREET     000000106661
40984901302008RSUSSEX APARTMENTS ASS166-05 HIGHLAND AVENU000002150002
40984901302009RSUSSEX APARTMENTS ASS166-05 HIGHLAND AVENU000001250002
40991400402009R179TH STREET LLC.    179-18 HILLSIDE AVENU000000324504
40991900262009RARIZONA              182-26 HILLSIDE AVENU000000065292B
40993400262009RPERSONAL TOUCH REALTY186-18 HILLSIDE AVENU000004330004
40993600292009RCHIME FAMILY HOLDINGS187-30 HILLSIDE AVENU000000210004
40994400302009RHEALTH INS/PLAN/GREAT180-05 HILLSIDE AVENU000002265004
40995000012008RBOWNE ASSOCIATES     182-17 AVON STREET   000002550004
40995000012009RBOWNE ASSOCIATES     182-17 AVON STREET   000006150004
40997400012008R138-16 JAMAICA LLC   138-16 JAMAICA AVENUE000000807004
40997400012009R138-16 JAMAICA LLC   138-16 JAMAICA AVENUE000000298504
40997400022009RMCDONALD'S CORPORATIO138-32 JAMAICA AVENUE000000550004
40998700162008R90-50 SUTPHIN RLTY CP90-54 SUTPHIN BOULEVA000000362504
40998700182008R90-50 SUTPHIN RLTY CP90-58 SUTPHIN BOULEVA000000362504
40999400512009R90-67 SUTPHINE BOULEV90-67 SUTPHIN BOULEVA000000488504
"40999600052009RMARTIN GOLDMAN,      148-12 JAMAICA AVENUE000001985004"
"40999600092009RMARTIN GOLDMAN,      148-18 JAMAICA AVENUE000002295004"
41000200012009RABBOTT WIRE PRODUCTS 95-25 149 STREET     000000695004
41000200102009RABBOTT INDUSTRIES INC95-08 150 STREET     000000053004
41000200132009RABBOTT INDUSTRIES INC95-12 150 STREET     000000204004
41001900392008R145-11 LIBERTY AVE CO145-11 BRISBIN STREET000000327004
41001900392009R145-11 LIBERTY AVE CO145-11 BRISBIN STREET000000345004
41005900302009RBONILLA FAMILY LIMITE105-17 SUTPHIN BOULEV000000189004
41006200242009RPARUCH WALTER        105-10 150 STREET    000000217504
41010100032009R160 JAMAICA OWNERS LL160-08 JAMAICA AVENUE000013775004
41010200022009R162 JAMAICA REALTY CP162-04 JAMAICA AVENUE000001440004
41011200682009RDEUTSCHER ALLAN      105-07 150 STREET    000000425004
41011200702009RDEUTSCHER ALLAN      105-03 150 STREET    000000446004
41011301092009RHONEYWELL FARMS INC  155-25 STYLER ROAD   000000851004
41011400172009RSTYLER REALTY CO     154-21 SOUTH ROAD    000001430004
41015100012008R16302 JAMAICA AVENUE 163-02 JAMAICA AVENUE000002865004
41015100142009RDUVALS REALTY INC    163-28 JAMAICA AVENUE000000564504
41015100212008RFRANCMEN 16402 LLC   164-02 JAMAICA AVENUE000000455004
41015500012009RPAPILLON REALTY LTD  165-02 JAMAICA AVENUE000001065004
41015500042009RORT PHILIP           165-06 JAMAICA AVENUE000002805004
41015500082008RBRAHA N J REALTY ASSO165-14 JAMAICA AVENUE000001201504
41015500082009RBRAHA N J REALTY ASSO165-14 JAMAICA AVENUE000001012504
41015500092008RBRAHA N J REALTY ASSO165-16 JAMAICA AVENUE000000191504
41015500092009RBRAHA N J REALTY ASSO165-16 JAMAICA AVENUE000000787504
41015500102009RBRAHA N J REALTY ASSO165-20 JAMAICA AVENUE000000261504
41015500112009RBRAHA N J REALTY ASSO165-22 JAMAICA AVENUE000000950004
41015500122009RBRAHA N J REALTY ASSO165-24 JAMAICA AVENUE000004095004
41015500162009RBRAHA N J REALTY ASSO92-20 MERRICK BOULEVA000001430004
41015500692009RLIBERTY MERRICK LLC  162-25 LIBERTY AVENUE000002170004
41015502102009RBRAHA N J REALTY ASSO165-18 JAMAICA AVENUE000000068004
41015600062009RLGF ENTERPRISES      166-12 JAMAICA AVENUE000002435004
"41015600072009RPENDROFF, CAROL      166-16 JAMAICA AVENUE000000645004"
"41015600092009RZUCKERMAN, KENNETH A 166-26 JAMAICA AVENUE000003075004"
41015600112009RKIMAQU CORPORATI0N   166-30 JAMAICA AVENUE000002645004
41015600142008RKIMAQU CORPORATI0N   166-36 JAMAICA AVENUE000005520004
41015600142009RKIMAQU CORPORATI0N   166-36 JAMAICA AVENUE000005520004
"41016400662008RWIENER, JESSE L      104-10 MERRICK BOULEV000000172004"
"41016400662009RWIENER, JESSE L      104-10 MERRICK BOULEV000000374504"
"41016400682008RWIENER , JESSE L     104-12 MERRICK BOULEV000000156504"
"41016400682009RWIENER , JESSE L     104-12 MERRICK BOULEV000000503004"
41021900892009RF STARK              170-37 DOUGLAS AVENUE000000480504
41032300142008RSIKDER  SURAJ        180-19 93 AVENUE     000000264004
41032400152009RF STARK              92-10 182 PLACE      000000609004
41034301652009RF STARK              108-40 DUNKIRK STREET000001550004
41035200662008RWARBURG-STORAGEMART P184-02 JAMAICA AVENUE000001740004
41035200662009RWARBURG-STORAGEMART P184-02 JAMAICA AVENUE000001470004
41035201192009RH VERBY HOLDING CO IN186-14 JAMAICA AVENUE000000715004
41035201352009RBAMBOO PALACE INC    187-30 JAMAICA AVENUE000002445004
"41035300852008RKJELLGREN, JOYCE A   187-07 HENDERSON AVEN000005174004"
"41035300852009RKJELLGREN, JOYCE A   187-07 HENDERSON AVEN000001484004"
41047403122009R199 JAMAICA AVE LLC  199-03 JAMAICA AVENUE000001082004
41047403222009R199 JAMAICA AVE LLC  JAMAICA AVENUE       000000508324
41049401232009RHAMPTON GDNS INC     199-04 HILLSIDE AVENU000000630002
41049700522009RPERSHAD DEVI         204-14 HILLSIDE AVENU000000551004
41054100022009RCOSTA MANAGEMENT     208-17 JAMAICA AVENUE000000086504
41054100042009RKHEMRAJ  AMRITT      208-13 JAMAICA AVENUE000000017501
"41058700492009RROSENTHAL, ABE       211-14 HILLSIDE AVENU000000910004"
41058700562008RROSENTHAL ABE        211-04 HILLSIDE AVENU000000160004
41058700562009RROSENTHAL ABE        211-04 HILLSIDE AVENU000001285004
41058800222009RROSENTHAL 211-44 REAL211-34 HILLSIDE AVENU000000435004
41067900392008RFRANCHISE REALTY INTE88-14 SPRINGFIELD BLV000000610004
41067900392009RFRANCHISE REALTY INTE88-14 SPRINGFIELD BLV000000510004
41068500392009RKHEMRAJ JAIRAM       21611 HILLSIDE AVENUE000000049002A
41072400412009RJAMAICA 45 LLC       219-45 JAMAICA AVENUE000000850051
41073100012009RAURORA MANAGEMENT REA219-46 93 AVENUE     000000750002
41075901442009RALLSTAR SALES CO     215-48 JAMAICA AVENUE000000483004
41075901672008RD & D MECHANICAL INC 95-10 218 STREET     000002117504
41075901672009RD & D MECHANICAL INC 95-10 218 STREET     000001375004
41080800502008R96-59 222ND STREET RE97-59 98 AVENUE      000001915004
41080800502009R96-59 222ND STREET RE97-59 98 AVENUE      000001600004
41082100012008RZARA REALTY HOLDINGCO91-61 193 STREET     000000455002
41082100012009RZARA REALTY HOLDINGCO91-61 193 STREET     000000210002
41082100702009R195 ST LLC           91-50 195 STREET     000001475002
41082900412009RSTARK RITA (EX)      198-10 JAMAICA AVENUE000000235504
"41099303282009R198 MURDOCK AVENUE,  198-01 MURDOCK AVENUE000000188004"
41108300702009RFI-ZO CORP.          215-04 HEMPSTEAD AVEN000004020004
41108300782009RFIZO CORP            215-08 HEMPSTEAD AVEN000000296854
41108300792009RLEVINE AL            215-10 HEMPSTEAD AVEN000002325004
"41108500372009RHIRAKIS, PETER       99-10 213 STREET     000000075301"
41115300352009RCHINEA PROPERTY MANAG103-06 219 STREET    000000150004
41121300012008RWHITE CASTLE SYSTEMIN112-11 SPRINGFIELD BL000000081004
41121300012009RWHITE CASTLE SYSTEMIN112-11 SPRINGFIELD BL000000337504
"41131700092009RARCHLAND PROPERTY I, SPRINGFIELD BLVD     000000192504"
41132300062009RKATCHIS HELEN        222-01 LINDEN BOULEVA000000340504
41134800452008RNASHER ROSALIA T     85-08 PITKIN AVENUE  000003090004
41142600012009RZERILLI SALVATORE    79-07 153 AVENUE     000000502012A
41142600222009RTENNIS COURT APTS INC151-24 80 STREET     000000082162A
41142600232009RTENNIS COURT APTS INC151-26 80 STREET     000000082162A
41142600242009RTENNIS COURT APTS    151-28 80 STREET     000000082162A
41142600252009RTENNIS COURT APTS    151-30 80 STREET     000000082162A
41142600262009RTENNIS COURT APARTS I151-32 80 STREET     000000082162A
41142600362009RTENNIS COURT APARTS I151-29 79 STREET     000000091282A
41142600432009RTENNIS COURT APARTS I151-25 79 STREET     000000082162A
41142600442009RTENNIS COURT APARTS I151-23 79 STREET     000000082162A
41142600452009RTENNIS COURT APARTS I151-21 79 STREET     000000082162A
41142600462009RTENNIS COURT APARTS I151-19 79 STREET     000000082162A
41142600472009RTENNIS COURT APARTS I151-17 79 STREET     000000082162A
41142600482009RTENNIS COURT APARTS I151-15 79 STREET     000000082162A
41142901332009RNATL WESTMINSTER BANK151-16 84 STREET     000000700004
41144400252009RIRONBOUND INVESTMENT 82-04 153 AVENUE     000000655004
"41145800012008RWANG, LUCY M         155-06 79 STREET     000000092792A"
"41145800012009RWANG, LUCY M         155-06 79 STREET     000000139772A"
41145800102008RLINDENWOOD VILLGE EST155-02 79 STREET     000000092792A
41145800102009RLINDENWOOD VILLGE EST155-02 79 STREET     000000139772A
41145800142008RLINDENWOOD VILLGE EST155-08 79 STREET     000000092792A
41145800142009RLINDENWOOD VILLGE EST155-08 79 STREET     000000139772A
41145800172008RLINDENWOOD VILLGE EST155-10 79 STREET     000000092792A
41145800172009RLINDENWOOD VILLGE EST155-10 79 STREET     000000139772A
41145800192008RLINDENWOOD VILLGE EST155-12 79 STREET     000000092792A
41145800192009RLINDENWOOD VILLGE EST155-12 79 STREET     000000139772A
41145800202008RLINDENWOOD VILLGE EST155-14 79 STREET     000000092792A
41145800202009RLINDENWOOD VILLGE EST155-14 79 STREET     000000139772A
41145800222008RLINDENWOOD VILLGE EST155-16 79 STREET     000000092792A
41145800222009RLINDENWOOD VILLGE EST155-16 79 STREET     000000139772A
41152900402009RMAHALAXMI INN CORP   137-27 CROSS BAY BOUL000001550004
41152900522009RPALLADINO JOSEPH     137-07 CROSS BAY BOUL000000162504
41154301002009RHD DEVELOPMENT OF MAR112-20 ROCKAWAY BOULE000072700004
41162400332009RG&K LEFFERT ASSOC    LINDEN BOULEVARD     000000220004
41164600532009RG&K LEFFERT ASSOC    114-11 LEFFERTS BOULE000000378504
41166100072009RKING CARMICHAEL      114-02 VAN WYCK EXPWY000000342504
41166400302009RPOWER REALTY MANAGEME120-19 ROCKAWAY BOULE000000348004
"41167900092009RALI, JAMEEL          122-79 ROCKAWAY BOULE000002050004"
41169500122009RBETA HOLDING CORP    131-25 ROCKAWAY BOULE000000023954
41170000062009RMARKLAND NY HOLDINGS 133-07 ROCKAWAY BOULE000000665004
41170200062008RMICHELE COHEN INC    135-11 ROCKAWAY BOULE000001385004
41170700392009RCAPRILE SILKE M      114-42 ROCKAWAY BOULE000000281504
41171600522009RCHAMERAJ SUKHU       117-18 123 STREET    000000053281
"41171600542009RRUPCHAND, JENARINE   117-22 123 STREET    000000053281"
41174400012009RCERVANTES JR JOSE    122-39 135 AVENUE    000000193504
41174900482008R127 ROCKAWAY REALTY C127-10 ROCKAWAY BOULE000000975004
41174900482009R127 ROCKAWAY REALTY C127-10 ROCKAWAY BOULE000002685004
41175500562009ROPP PROPERTIES LLC   131-24 ROCKAWAY BOULE000000715004
41175900412009RP CORDARO            135-02 ROCKAWAY BOULE000000243004
"41178200402009RLOOTAWAN, MARENDRA   123-18 133 AVENUE    000000023701"
41180600172008RVEE'S PROPERTY MGMTDB135-35 LEFFERTS BOULE000000195004
41180600172009RVEE'S PROPERTY MGMTDB135-35 LEFFERTS BOULE000000825004
41188600012009RSTAR CANYON LLC      148-18 134 STREET    000008635004
41199400032009RDANS SUPREME SUPERMARSUTPHIN BOULEVARD    000000181624
41199400052009RDANS SUPREME SUPERMARSUTPHIN BOULEVARD    000000181974
41199400072009RDANS SUPREME SUPERMARSUTPHIN BOULEVARD    000000096664
41202800092008R119 SUTPHIN REALTY CO119-14 SUTPHIN BOULEV000005262004
41209300202009RJFK HOLDING COMPANY L138-10 NORTH CONDUIT 000062755004
41209900012009RRISINGSAM DITMARS LLC144-02 NORTH CONDUIT 000010735004
41209900502009RFIELD FAMILY ASSOCIAT144-10 135 AVENUE    000012005004
41210400222008RSHURGETT LLC         149-20 ROCKAWAY BOULE000000247504
41210400222009RSHURGETT LLC         149-20 ROCKAWAY BOULE000000382504
41212700772009RHAYES EUGENE F       152-56 ROCKAWAY BOULE000000090004
41217800802009RBRANCATO VINCENT     MEYER AVENUE         000000034504
"41218400072009RLEWIS, STEVE H       114-01 SUTPHIN BOULEV000000460004"
"41225700012009RGRUSKA, IRENE        152-09 ROCKAWAY BOULE000000145004"
41225700172009R1-7 BAISLEY CO       152-01 ROCKAWAY BOULE000001195004
41231000012009RROCKAWAY BK ASSOC    154-05 ROCKAWAY BOULE000011050004
41243900132008RMICHELE COHEN INC    187-08 LINDEN BOULEVA000002610004
41259900012009RTHE GREENPOINT SAVING189-02 LINDEN BOULEVA000000320004
41265000452009RGEORGIEA NICOLA MCLAU120 AVENUE           000000002431B
41274600552008R229 LINDEN LLC       229-02 LINDEN BOULEVA000000450004
41287800162009RCOSGROVE ALAN        128-49 237 STREET    000000018601
"41289100062009 ARMOND , COLIN       129-40 HOOK CREEK BOU000000021001"
41309800212009RLAURELTON CAR WASH IN220-02 MERRICK BOULEV000003795004
41320600322009R68-70 BROADWAY CORP  133-26A 243 STREET   000000177004
41320700332008RHABERSTUMPF HERBERT  243-14 MERRICK BOULEV000000256504
41320800332009RGOLDEN ARCH RLTY CORP244-10 MERRICK BOULEV000000190004
41327900012008RRREEF AMERICA REIT II160-39 ROCKAWAY BOULE000000580004
41331300332009R145-44 FARMERS BOULEV145-44 FARMERS BOULEV000000501004
41331300402009RPARK CIRCLE REALTY AS145-55 GUY R BREWER B000000771694
41336400782009RD & M KLEILA LLC     167-21 PORTER ROAD   000001150004
41338400842008RUNITED KIMLAND INC   177-17 150 AVENUE    000000210004
41340600392009RRREEF AMERICA REIT II147-02 181 STREET    000000855004
41340700072008RSEAGIS JFK LLC       181 STREET           000000223004
41340700072009RSEAGIS JFK LLC       181 STREET           000000223004
41340700342008RSEAGIS JFK LLC       147 AVENUE           000000095004
41340700342009RSEAGIS JFK LLC       147 AVENUE           000000095004
41340700362008RSEAGIS JFK LLC       147 AVENUE           000000078504
41340700362009RSEAGIS JFK LLC       147 AVENUE           000000078504
41340800012009RSEAGIS JFK LLC       147-29 182 STREET    000001695004
"41341100012008RAMB PROPERTY, L.P.   182-09 149 ROAD      000002070004"
"41341300012008RAMB PROPERTY, L.P.   179-02 150 AVENUE    000002805004"
"41341300012009RAMB PROPERTY, L.P.   179-02 150 AVENUE    000002475004"
41341300312009RSEAGIS JFK LLC       179-29 150 ROAD      000000575004
41343000022009RCITY OF NEW YORK     149-09 183 STREET    000004150004
"41347400042009RAMB PROPERTY, L.P.   145-73 226 STREET    000018700004"
41349100312009RFRANCHISE REALTY INTE221-20 SOUTH CONDUIT 000000325004
"41350201012009RPETERKIN, LORNA      144-49 231 STREET    000000010611"
41353802042008RBROADWAY HOMES REALTY145-33 232 STREET    000000721082B
41353802042009RBROADWAY HOMES REALTY145-33 232 STREET    000001011562B
41355100012009RMALIN GEORGE L  WEIDM143-60 243 STREET    000001525004
41356800272009RNORTH FORK BANK      145-15 243 STREET    000000292504
41369100012009RAIRPORT PARK LLC C/O HOOK CREEK BOULEVARD 000011841754
41369100062009RAIRPORT PARK LLC C/O HOOK CREEK BOULEVARD 000000599504
41369200012009RAIRPORT PARK LLC C/O HOOK CREEK BOULEVARD 000000928404
41369200082009RAIRPORT PARK LLC C/O HOOK CREEK BOULEVARD 000000470804
41392100012009RBERNARDO DEJESUS     254-02 3 STREET      000000534004
41394300012009RLINDENWOOD GARDENS CO80-11 SHORE PARKWAY  000005780002
41406600232009R162-50 CROSS BAY BLVD162-50 CROSS BAY BOUL000002355004
41414800012009RNEW YORK COMMUNITY BA156-01 CROSS BAY BOUL000011965004
"41416200472009RSUSCO, VINCENT  J    156-27 101 STREET    000000049501"
41418201062009R159 HOWARD OWNERS COR102-15 159 ROAD      000000437504
"41419500012009RSEAROSE, INC         162-01 CROSS BAY BOUL000000238504"
"41419500042009RSEAROSE, INC         CROSS BAY BOULEVARD  000000585004"
"41419500132009RRUSSO ENTERPRISES, IN162-31 CROSS BAY BOUL000007200004"
"41419500992009RSEAROSE, INC         CROSS BAY BOULEVARD  000000205004"
41422502482009REUGENE TRAYNOR       99 STREET            000000003841B
"41500100872009RSTERLING & CIE, LLC  144-25 153 LANE      000004410004"
41500101272009RMETRO ELEVEN HOTEL   144-26 153 COURT     000005770004
41500800142008RRREEF AMERICA REIT II144-40 156 STREET    000001065004
41500800142009RRREEF AMERICA REIT II144-40 156 STREET    000000755004
41500800282008RRREEF AMERICA REIT II144-25 156 STREET    000000181004
41500900062008RRREEF AMERICA REIT II144-30 157 STREET    000000425004
"41501100252009RAMB PROPERTY, L.P.   145-11 156 STREET    000001140004"
41532100702009RTHOMAS HARNISHER     17 ROAD              000000008781B
41550500012009RALFRED R SATIN       13-11 VIRGINIA STREET000001960004
"41550700072008RGARRON, LAWRENCE     833 CENTRAL AVENUE   000000100002"
"41550700072009RGARRON, LAWRENCE     833 CENTRAL AVENUE   000001045002"
41552900192009RJMJ REALTY ASSOCIATES14-15 REDFERN AVENUE 000001625004
"41552901432009RWATERMILL PROPERTIES,1400 BRUNSWICK AVENUE000000960004"
