"20226000382009R220 EAST REALTY, INC.517 EAST 132 STREET  000000828004"
"20226000382009R220 EAST REALTY, INC.517 EAST 132 STREET  000000828004"
20226600012009RLOUIS REICHARDT HOLDI250 BROOK AVENUE     000000355502
20226600032009RLOUIS REICHARDT HOLDI515 EAST 138 STREET  000000075004
20226600042009RLOUIS REICHARDT HOLDI517 EAST 138 STREET  000000075004
20226600282009RLOUIS REICHARDT HOLDI535 EAST 138 STREET  000000585004
20226600372009RLOUIS REICHARDT HOLDI529 EAST 138 STREET  000000287502
20226600392009RLOUIS REICHARDT HOLDI527 EAST 138 STREET  000000307002
20226600402009RLOUIS REICHARDT HOLDI525 EAST 138 STREET  000000287502
20226600412009RLOUIS REICHARDT HOLDI523 EAST 138 STREET  000000307002
20226600422009RLOUIS REICHARDT HOLDI519 EAST 138 STREET  000000187004
20226800092009R350 BROOK AVE RLTY CP350 BROOK AVENUE     000000081504
20230700402009R2787 3 AVE CORP      2778 3 AVENUE        000000045204
20230900122009R                     282 EAST 134 STREET  000003621774
20231400842009RMYRON GINSBERG       289 EAST 139 STREET  000000393004
20231700512009RTHREE CLOUD REALTY CO261 EAST 134 STREET  000000061504
20231800182009R200 EAST REALTY INC  2488 3 AVENUE        000000145004
20232000722008R138TH STREET REALTY  256 EAST 138 STREET  000000101504
20232000742009RE. 138 ST. BRONX RLTY260 EAST 138 STREET  000000221004
20232201112009RUNITED PARCEL SERVICE215 RIDER AVENUE     000000515004
20232700202009RMT EAST 148TH STREET 368 EAST 148 STREET  000001745004
20233000392009R149TH STREET REALTYCO346 EAST 149 STREET  000005055004
20233000452009R38 HLDG CP           351 EAST 148 STREET  000004920004
20233100522009R64 HOLDING CORP      329 EAST 149 STREET  000001580004
20233100642009RHUB LLC              301 EAST 149 STREET  000000685504
20234002202009RF.M.T.C. REALTY CORP.230 EAST 144 STREET  000000706004
20234002212009RF.M.T.C. REALTY CORP.228 EAST 144 STREET  000006120004
20234300102009R424 SHEVA REALTY ASSO424 GRAND CONCOURSE  000000466502
20234300122009R424 SHEVA REALTY ASSO428 GRAND CONCOURSE  000000453002
20234700202008RCONSOURSE REALTY LLC 575 GRAND CONCOURSE  000000341004
20234700202009RCONSOURSE REALTY LLC 575 GRAND CONCOURSE  000000719004
20236000892009RBROOK HOUSE REALTY CO3146 3 AVENUE        000000995004
20236200112008RBRONX SOUTH REALTY   2910 3 AVENUE        000001160004
20236800272008RRIVERDALE HOLDING COR508 EAST 164 STREET  000000122004
20236800272009RRIVERDALE HOLDING COR508 EAST 164 STREET  000000167004
20237400262009RR G ENTERPRISE INC   614 MELROSE AVENUE   000000785004
"20237700492008R156 THIRD HOLDING,   3037 3 AVENUE        000000605004"
20238600672009RACTION PAPER CO INC  429 EAST 164 STREET  000000670004
20238600742008RBROOK WEBSTER DVLPMNT425 EAST 164 STREET  000000426504
20238600742009RBROOK WEBSTER DVLPMNT425 EAST 164 STREET  000000426504
20239100522009R979 BROOK REALTY ASSO979 BROOK AVENUE     000002960004
20239900062008RCOURTLANDT 666 LLC.  652 COURTLANDT AVENUE000000410002
20240900902009RBROOK WEBSTER DEVELOP941 COURTLANDT AVENUE000000528004
20242200642009R3255 PARK AVENUE RLTY924 TELLER AVENUE    000000136504
20242300262009RGEORGE E MANTZARIS   270 EAST 164 STREET  000000612504
20242300842008RZ 325 CORP           325 EAST 163 STREET  000000671502
20242300842009RZ 325 CORP           325 EAST 163 STREET  000000533002
20242400532009R3339 PARK LLC        3339 PARK AVENUE     000000420004
20242600642008RWEBSTER-168 REALTY CO1201 WEBSTER AVENUE  000000770004
20242600642009RWEBSTER-168 REALTY CO1201 WEBSTER AVENUE  000000770004
20243900222008R168TH STREET DEVELOPM275 EAST 168 STREET  000000832502
20243900442008R1270 MORRIS LLC      1270 MORRIS AVENUE   000000689002
20244300292009R590 G C    .         590 GRAND CONCOURSE  000000340004
20244301002009RACADIA P/A 161ST STRE260 EAST 161 STREET  000013900004
20245000522008R1225 REALTY CORP     1225 MORRIS AVENUE   000000345002
20245700012008R1212 GRAND CONCOURSE 1212 GRAND CONCOURSE 000003295002
20245700262009RPIPE DREAMS REALTY VC1225 SHERIDAN AVENUE 000000700002
20246200102009RGRACON OPERATING CORP1072 GRAND CONCOURSE 000009765004
20247100152008RWEST WALTON REALTY CO1024 WALTON AVENUE   000000610002
20247200232009R1055 BLUE LLC        1055 GRAND CONCOURSE 000002240002
20247400512009R845 WALTON LLC       845 WALTON AVENUE    000000990002
20247700112008RPINE TOP CORP.       1020 GERARD AVENUE   000000510002
20247800302008RANNAL  MANAGEMENT CO 80 MC CLELLAN STREET 000000860002
20248100282008R1265 REALTY ASSOCIATE1265 WALTON AVENUE   000000380002
20248400052009RFRANCHISE REALTY INTE51 EAST 161 STREET   000000260004
20250500842008R1115 JEROME LLC      1115 JEROME AVENUE   000000340002
"20251300012009RHARRIS, HERBERT      103 EAST 165 STREET  000007790392"
20251800312008RNELSON SENIOR HOUSING1265 NELSON AVENUE   000008890002
20252000282009R1372 NELSON LLC      1372 NELSON AVENUE   000000175502
20252300612009RH W WILSON COMPANY IN950 DR M L KING JR BL000005365004
20252301202009RH W WILSON COMPANY INUNIVERSITY AVENUE    000000186594
20252600202008ROGDEN AVENUE LLC     1091 OGDEN AVENUE    000000450004
20252600202009ROGDEN AVENUE LLC     1091 OGDEN AVENUE    000000965004
20252900252009RUNIVERSITY AVENUE SEN1285 MERRIAM AVENUE  000033505632
"20253000252009RLANE, RICHARD S./TR  SEDGWICK AVENUE      000003173254"
"20253301202009RROC-SEDGWICK, LLC    DR M L KING JR BLVD  000004493254"
20253700472008R1425 U LLC           1425 DR M L KING JR B000000200002
20253700472009R1425 U LLC           1425 DR M L KING JR B000000715002
20254300602009R780 E 132ND ST. CO.  720 EAST 132 STREET  000003370004
20256300122009RWEST 1ST HOLDING CORPEAST 135 STREET      000001045554
20256400472009R728 EAST REALTY CORP 728 EAST 136 STREET  000002370004
20256400512009RT J RONAN PAINT CO   749 EAST 135 STREET  000001025504
20256600302009RGOBEL HOLDING CORP   691 EAST 137 STREET  000000239504
20256800462009R314 CYPRESS AVE DEVEL314 CYPRESS AVENUE   000000300004
20256800472009R314 CYPRESS AVE DEVEL316 CYPRESS AVENUE   000000300004
20256800482009R314 CYPRESS AVE DEVEL318 CYPRESS AVENUE   000000219004
20256800492009R314 CYPRESS AVE DVLPC320 CYPRESS AVENUE   000000300004
20256800682008RJACKSON AVENUE DEVELO711 EAST 140 STREET  000000610004
20256800682009RJACKSON AVENUE DEVELO711 EAST 140 STREET  000000705004
20256801452009R314 CYPRESS AVE DEVEL312 CYPRESS AVENUE   000000300004
20257500652008RHEARST COMMUNICATIONS387 SOUTHERN BOULEVAR000001140004
20257500652009RHEARST COMMUNICATIONS387 SOUTHERN BOULEVAR000008290004
20258700112008RJEBRAHAN CORP        800 EAST 136 STREET  000000135004
20258700112009RJEBRAHAN CORP        800 EAST 136 STREET  000000157504
20258700402009RWALNUT INDUSTRIAL LL 878 EAST 136 STREET  000000108004
20259500392009RCASTLE PORT MORRIS ET184 LOCUST AVENUE    000004800004
20259800622008RWALNUT REALTY ASSOCIA302 WALNUT AVENUE    000000360004
20259800622009RWALNUT REALTY ASSOCIA302 WALNUT AVENUE    000000135004
20259900692009RNAZARETH RELIGIOUS CR940 EAST 149 STREET  000000270004
20260100012009R420 AUSTIN REALTY COR420 AUSTIN PLACE     000000420044
20260100072008RMETROPOLITAN  47TH   432 AUSTIN PLACE     000000380004
20260100072009RMETROPOLITAN  47TH   432 AUSTIN PLACE     000000965004
"20260100122009RAUSTIN PLACE COMPANY,450 AUSTIN PLACE     000000566004"
20260300072009R977 BEDFORD AVE RLTYC552 SOUTHERN BOULEVAR000001575004
"20260600302009RCASTLE TERMINALS, INC1110 OAK POINT AVENUE000009148504"
20261000122009RFORDHAM FULTON LLC   530 EAST 169 STREET  000001265002
20261900012009R521 BRUCKNER BLVD COR842 ST ANNS AVENUE   000000860004
20262100012009RIMPROVEMENT COUNCIL H3250 3 AVENUE        000057100002
20263200012009RIMPROVEMENT COUNCIL H665 EAST 163 STREET  000002990002
20264100362008RPAUL MASLIN & CO LLC 551 WALES AVENUE     000000945002
20266300622008RPARROCKS ASSOCIATES  755 EAST 168 STREET  000003910002
20267400152008RREALTY 843 CORP      843 EAST 149 STREET  000000336004
"20267600452008RBERCO REALTY, LLC    806 WESTCHESTER AVENU000000386502"
"20269000342009RBORO ESTATES,    .   899 WESTCHESTER AVENU000004613544"
20270300252008REAST 163RD LLC       935 EAST 163 STREET  000001220002
20270700742008RSOUTHERN BOULEVARD PA775 FOX STREET       000001014002
20270700852008RSOUTHERN BOULEVARD PA751 FOX STREET       000001194002
20270800162009R951 LEGG LLC         957 LEGGETT AVENUE   000001227504
20272000242008RSOUTHERN BOULEVARD PA739 SOUTHERN BOULEVAR000001168502
20272000542008R063 WALTON BC REAL ES764 FOX STREET       000000363002
20272900702009R790-792 L.L.C.       796 SOUTHERN BOULEVAR000000477504
20273100552008RMCDONALD'S CORP      875 GARRISON AVENUE  000000534004
20273100552009RMCDONALD'S CORP      875 GARRISON AVENUE  000000534004
20273400442009R1019 GARRISON AVENUE 1019 GARRISON AVENUE 000000074004
20273600842008RAL EASTMOND & SONS IN1175 LEGGETT AVENUE  000000976504
20273600842009RAL EASTMOND & SONS IN1175 LEGGETT AVENUE  000001458004
20273600862009RA L EASTMOND SONS INCGRINNELL PLACE       000000586004
"20273601382009RA.L. EASTMOND & SONS,1190 EAST 156 STREET 000001383004"
"20273601492008RA.L. EASTMOND & SONS,1173 GRINNELL PLACE  000000868404"
"20273601492009RA.L. EASTMOND & SONS,1173 GRINNELL PLACE  000000580404"
"20273601512008RA.L. EASTMOND & SONS,1165 GRINNELL PLACE  000000846004"
"20273601512009RA.L. EASTMOND & SONS,1165 GRINNELL PLACE  000000562504"
"20273602702009RLONGWOOD AVENUE, LLC 1150 LONGWOOD AVENUE 000001370004"
20274300012008RZALE MGMT CORP       945 ALDUS STREET     000001375002
20274300012009RZALE MGMT CORP       945 ALDUS STREET     000001240002
20275600902009RALAN BACKELMAN       1156 EAST 165 STREET 000000277504
20275700442009RP.D.J. SIMONE REALTYC1056 LOWELL STREET   000000180504
20276101202009RCHARLES ZUCKERMAN    923 LONGFELLOW AVENUE000000079504
20276101772009RJ FRED COLLINS       WHITTIER STREET      000000247504
"20276201872009RLONGLAF REALTY, LLC  800 LONGFELLOW AVENUE000000080004"
20276202902009R849 EDGEWATER PROPERT855 EDGEWATER ROAD   000000108504
20276302152009ROAR FAILLE LLC       770 FAILE STREET     000000315002
20276400172009RM.S.T. WHITTIER LLC  739 DRAKE STREET     000000583004
20276601652009RFERRO PROPERTIES LLC 660 HUNTS POINT AVENU000000748004
20276602832009RWHITTIER STREET REALT626 WHITTIER STREET  000000490004
20276800332009RALICE SCHWARTZ GRANTO516 TRUXTON STREET   000000104004
20276803052009ROAK POINT BERGSON RLT1265 OAK POINT AVENUE000003115004
20276803332008RHOFFMANN INVESTORS CO540 MANIDA STREET    000000570004
20276803432009R1290 REALTY CORP     1290 RANDALL AVENUE  000001003504
20276803682009RHOFFMANN INVESTORS CO520 COSTER STREET    000000190004
"20277101212008RA.L. EASTMOND & SONS,448 TIFFANY STREET   000004550004"
"20277101302008RA.L. EASTMOND & SONS,437 CASANOVA STREET  000001675004"
"20277101302009RA.L. EASTMOND & SONS,437 CASANOVA STREET  000002395004"
"20277101612009RPNS,                 448 CASANOVA STREET  000001409004"
20277102032009RM TITLE - C KLEIN LLC1250 OAK POINT AVENUE000000607504
20277200642009RBOWERS ANN MARIE     EAST BAY AVENUE      000000187504
20277402872009RADAMS REATLY ASSOCIAT377 COSTER STREET    000000560004
20277403082009RSIMONE DEVELOPMENT CO300 MANIDA STREET    000000490004
20277403692009RHOFFMANN INVESTORS CO330 COSTER STREET    000000114504
20277500852008RM.S.T. RANDALL LLC   324 BRYANT AVENUE    000000297004
20277500932009RFELDMAN BROS. REALTY 330 BRYANT AVENUE    000005155004
20277501552009RVIELE AVENUE PROPERTIDRAKE STREET         000000815634
20277701732009RSIMONE DEVELOPMENT CO1271 RYAWA AVENUE    000000346504
"20277702502008R220 COSTER, LLC      220 COSTER STREET    000000823504"
"20277702502009R220 COSTER, LLC      220 COSTER STREET    000002884504"
20279100182009RREMO HOLDING CORP    1661 TOPPING AVENUE  000000134002
20279200142009R2025 LLC             1665 MONROE AVENUE   000000495002
20279900452009R1755 CLAY LLC        1755 CLAY AVENUE     000000770002
20279900502009R1747 CLAY REALTY LLC 1747 CLAY AVENUE     000001480002
20280200462009R255 E LLC            255 EAST 176 STREET  000001530002
20280500602009RPARKASH VED          125 MT HOPE PLACE    000000220002
20280700012008RBRONX HOTEL CORP     101 EAST TREMONT AVEN000001260002
20280700012009RBRONX HOTEL CORP     101 EAST TREMONT AVEN000004130002
20280700352009R101 REALTY           101 EAST 179 STREET  000001580002
20280900012008R1900 G.C. LLC        1900 GRAND CONCOURSE 000000935002
"20281000072008RLABINER, BARTLEY R.  1940 GRAND CONCOURSE 000000249504"
"20281000072009RLABINER, BARTLEY R.  1940 GRAND CONCOURSE 000000339504"
20281400652009RPARKASH 2000 LLC     2000 ANTHONY AVENUE  000000830002
"20281900012008R1504 SHERIDAN, LLC   1504 SHERIDAN AVENUE 000002255002"
20282000012008R1495 MORRIS LLC      1495 MORRIS AVENUE   000000860002
20282400152009R1665 MORRIS LLC C/O A1665 MORRIS AVENUE   000000240002
20283100482008RHOWARD J. KAPLOW REAL1398 GRAND CONCOURSE 000000835002
20283100482009RHOWARD J. KAPLOW REAL1398 GRAND CONCOURSE 000000405002
"20283600052009R1540 WALCO, INC.     1540 WALTON AVENUE   000000440002"
20283800232009RSTEVECO PARTNERS LLC 1665 GRAND CONCOURSE 000000435002
20284000182009RFORTY-MARCY LTD.     38 MARCY PLACE       000000390002
20284000472008R105 EAST CLARK ASSOCI105 CLARKE PLACE EAST000001215002
20284100052009R1362 JEROME HEIGHTS A1362 JEROME AVENUE   000001802504
20284100552008RELLIOT PLACE ASSOCIAT124 ELLIOT PLACE     000000560002
20284100552009RELLIOT PLACE ASSOCIAT124 ELLIOT PLACE     000000350002
"20284200712008RH.G.W. REALTIES,     133 ELLIOT PLACE     000000185002"
"20284200802008RH.G.W. REALTIES,     121 ELLIOT PLACE     000000455002"
20284300312009R1405 TOWNSEND AVENUE 1401 TOWNSEND AVENUE 000000855002
"20284300692009REMIGRANT BANCORP, INC101 EAST 170 STREET  000000645004"
20284400652008R1453 HOLDING LLC     1453 WALTON AVENUE   000000175002
20285200092009R1888 JEROME HOLDINGS 1888 JEROME AVENUE   000000448504
"20285500532009R1299 JEROME AVENUE, I1304 INWOOD AVENUE   000001925004"
"20285600192009RBOSS REALTY COMPANY, 1364 INWOOD AVENUE   000000419504"
20285600202009RBRIROS REALTY CORP   1363 JEROME AVENUE   000000880004
"20285600492009RBOSS REALTY COMPANY, 1339 JEROME AVENUE   000000107504"
20285601412009RNYC INDUSTRIAL DVLPAG1351 JEROME AVENUE   000000340004
"20285800232008RCOHEN,STANFORD       1465 JEROME AVENUE   000000300004"
"20285800232009RCOHEN,STANFORD       1465 JEROME AVENUE   000000299504"
"20286100112008RUNIVERSITY AVENUE, L.1668 DAVIDSON AVENUE 000000200002B"
"20286100112009RUNIVERSITY AVENUE, L.1668 DAVIDSON AVENUE 000000200002B"
20286101542009RHIBER REALTY INC     1785 JEROME AVENUE   000001300004
20286400082009RCONCORD AVENUE LLC   1301 INWOOD AVENUE   000000337504
20286400212009RINWOOD CAPITAL GROUP 1349 INWOOD AVENUE   000001782004
"20286501292009R47 FEATHERCO, L.L.C. 47 FEATHERBED LANE   000000670002"
20286900432009R75 W. TREMONT REALTY WEST TREMONT AVENUE  000001000654
20287000262009R40 WEST BURNSIDE AVE 40 WEST BURNSIDE AVEN000000860004
20287200502009RPROSKER REALTY CORP. 1388 JESUP AVENUE    000000447504
20287201892008RHIGHBRIDGE COMMUNITY 1450 JESUP AVENUE    000010970002
20287600452009RMAGENTA REALTY LLC  C103 FEATHERBED LANE  000000127504
"20287601702008RUNIVERSITY AVENUE, L.1696 NELSON AVENUE   000000208542A"
"20287601702009RUNIVERSITY AVENUE, L.1696 NELSON AVENUE   000000244002A"
"20287601842009RMONTMAC DEVELOPER, L.1669 MACOMBS ROAD    000001650002"
"20287601852009RMONTMAC DEVELOPER, L.1665 MACOMBS ROAD    000001620002"
"20287702332009RMONTMAC DEVELOPER, L.1493 MONTGOMERY AVENU000001730002"
20287800172008RUNIMAC DEVELOPER LP  1611 DR M L KING JR B000000995002
20288001502009RSTELLAR UNDERCLIFF LLSEDGWICK AVENUE      000001062244
20288701772009RWEBSTER INDUSTRIAL DE1325 WEBSTER AVENUE  000000396004
20288800432009RMSF HOLDING LLC.     1665 WEBSTER AVENUE  000000350004
20289100642009RWILGREEN ASSOCIATES  260 EAST 176 STREET  000000800002
20289700392009RTHIRD BATH INC.      1650 WEBSTER AVENUE  000001145504
20289700622009RIRVING BAUER         428 EAST 173 STREET  000000540004
20289800162009RKLIGOFF HOLDING CORP 1724 WEBSTER AVENUE  000000661504
20289900582009RACADIA STORAGE POST P4077 PARK AVENUE     000002585004
20290000152009RMARROCCOLI THOMAS    1842 WEBSTER AVENUE  000001095004
20290600932009RWASHPARK REALTY CRP  1687 WASHINGTON AVENU000000491004
"20292300012008RCROSS BX RESIDENCE,IN1810 BATHGATE AVENUE 000001200004"
"20292300012009RCROSS BX RESIDENCE,IN1810 BATHGATE AVENUE 000002125004"
20293100522009RZEINALI ABE          596 EAST 170 STREET  000000190701
20293400402009RAMOCO OIL COMPANY    1365 BOSTON ROAD     000000278004
20293800112008RCROTONA PARK DEVELOME1424 CROTONA PARK EAS000000630002
20293800142008RCROTONA PARK DEVELOME1432 CROTONA PARK EAS000000300002
20293800182008RCROTONA PARK DEVELOME1440 CROTONA PARK EAS000000200002
20294600162009RBELMONT COURT ASSOC  1898 BELMONT AVENUE  000000208002
20294600182009RBELMONT COURT ASSOC  1900 BELMONT AVENUE  000000735002
20294600222009RBELMONT COURT ASSOC  1908 BELMONT AVENUE  000000662002
"20295000142009R1882 CROTONA AVENUE, 1882 CROTONA AVENUE  000000137004"
20297701102008RPLAZA DEL CASTILLO DE1515 SOUTHERN BOULEVA000004770004
20297701102009RPLAZA DEL CASTILLO DE1515 SOUTHERN BOULEVA000003690004
20297900042009RADELINO GONCALVES    1212 SOUTHERN BOULEVA000001892004
20297900112009RRNG REALTY LLC       1226 SOUTHERN BOULEVA000000308292B
20298100052009RPLAZA DEL CASTILLO DESOUTHERN BOULEVARD   000001378554
20298100082009RPLAZA DEL CASTILLO DE1478 SOUTHERN BOULEVA000000335854
20298100092009RPLAZA DEL CASTILLO DE1482 SOUTHERN BOULEVA000000937504
20299100012009RDELTA ASSOC. LLC     925 EAST 174 STREET  000000177004
20299100052009RHIGH HAWK LLC        BOSTON ROAD          000002311854
20299800022009RCROSS BRONX PLAZA LLC1764 VYSE AVENUE     000025250004
20301700292009RP D J SIMONE RLTY CO 1480 SHERIDAN EXPWY S000000915004
20301700742009RWEST FARMS REALTY LLC1460 SHERIDAN EXPWY S000000290004
20302200012008RMMIKP BRONX REALTY LL2364 TIEBOUT AVENUE  000001025002
20302300292009R324 REALTY ASSOCIATES324 EAST FORDHAM ROAD000004015004
"20302300372009RLENHAS REALTY, LLC.  330 EAST FORDHAM ROAD000008450004"
"20302900152009RNYW REALTY,          2044 WEBSTER AVENUE  000000935004"
20303001382009R2242 REALTY LLC.     2242 WEBSTER AVENUE  000000199502
20303300012009RJAMIL PRODUCTS CORP  2488 WEBSTER AVENUE  000000357004
20303300042009RAUTOMOTIVE REALTY COR2490 WEBSTER AVENUE  000001915004
20303800082009RIEMMITI IEMMITI IEMM PARK AVENUE          000000084654
20303800092009RIEMMITI IEMMITI IEMM PARK AVENUE          000000047154
20305100242009RJAIME ASSOCIATE      2280 BATHGATE AVENUE 000000795002
"20305600292008R553 E. FORDHAM, LLC. 553 EAST 187 STREET  000001122002"
"20305600292009R553 E. FORDHAM, LLC. 553 EAST 187 STREET  000001385002"
20305700032009R4660 THIRD AVENUE RLT4660 3 AVENUE        000000436504
20305800012008R485 EAST 188 ST RLTYC2438 WASHINGTON AVENU000000225002
20306100032009RTHIRD AVENUE SELF STO4270 3 AVENUE        000001120004
20306100912009RFRAN JU INC          534 EAST 180 STREET  000001035004
"20306500332009R2384 HOFF REALTY, LLC2380 HOFFMAN STREET  000003085004"
20306600092009RLUIGI LULAJ          2420 HOFFMAN STREET  000001555381
20306600312009RROMANO BERNARD       571 EAST 188 STREET  000000827004
20306700242009R2501 HOFFMAN PROPERTI2501 HOFFMAN STREET  000001085002
"20306800012009R575 EAST TREMONT AVE,575 EAST TREMONT AVEN000000369004"
20306800552008RARTHUR REALTY APARTM 600 EAST 178 STREET  000009415002
"20307100392009RA-WIDE REALTY, INC.  2220 ADAMS PLACE     000001179002"
20307200092009RCRESBRON REALTY CORP 610 CRESCENT AVENUE  000001380002
20307800132009RMIRA PROPERTY MANAGEM600 EAST FORDHAM ROAD000000334002A
20307900222009RFERRAB REALTY LLC    2008 HUGHES AVENUE   000000525002
"20307900422009RRIVERDALE EQUITIES,LT681 EAST TREMONT AVEN000000990004"
20308800222009RMASTERMIND REAL ESTAT668 CRESCENT AVENUE  000000500004
"20308900222008RCICCIU, ANNE MARIE   2338 CAMBRELENG AVENU000001350004"
20308900312009RJOYBET LTD           670 EAST 187 STREET  000000835504
"20309000272009RARIZONA, LLC         699 EAST 187 STREET  000000128002B"
20309000362008RANN GRACE CORP       691 EAST 188 STREET  000000130502
20311100762009R2137-41 SOUTHERN BLVD2137 SOUTHERN BOULEVA000000161004
20311700082009R853-855 EAST TREMONT 855 EAST TREMONT AVEN000000785002
20311800332009RMOHEGAN CROTONA AVENU2083 MOHEGAN AVENUE  000000265002
20312100642008REAST TREMONT PROPERTI907 EAST TREMONT AVEN000001640004
20312100642009REAST TREMONT PROPERTI907 EAST TREMONT AVEN000003935004
20312300442009RMOHEGAN CROTONA AVENU2082 MOHEGAN AVENUE  000000260002
20312300462009RMOHEGAN CROTONA AVENU2090 MOHEGAN AVENUE  000000190002
20312300532009RMOHEGAN CROTONA AVENU876 EAST 180 STREET  000000160002
20312300562009RMOHEGAN CROTONA AVENU882 EAST 180 STREET  000002005002
20312400012009RGREENTREE MOHEGAN LLC883 EAST 180 STREET  000006110002
20312500092008RDALY II ASSOCIATES   2120 HONEYWELL AVENUE000000312502
20312500122008RDALY II ASSOCIATES   908 EAST 181 STREET  000000312502
20312500142008RDALY II ASSOCIATES   2117 DALY AVENUE     000000312502
20312800092008RDALY II ASSOCIATES   924 EAST 181 STREET  000000560002
20312800132008RDALY II ASSOCIATES   934 EAST 181 STREET  000000945002
20313300132008RDALY III ASSOCIATES  966 EAST 181 STREET  000000655002
20313400012008RDALY III ASSOCIATES  2134 VYSE AVENUE     000000575002
"20314301402008RA & E TIEBOUT REALTY,2200 TIEBOUT AVENUE  000001200002"
20314301762008RM.S.H. HOLDING COMPAN375 EAST 182 STREET  000000361004
"20314700262008RBEVING ASSOCIATES, L 2395 TIEBOUT AVENUE  000000600002"
20315000032008RSAMEST RLTY CORP     2234 RYER AVENUE     000000203002
20315000052008RSAMEST RLTY CORP     2240 RYER AVENUE     000000203002
20315300082009R37 HOLDING CO        2474 GRAND CONCOURSE 000001420004
20315400222009RELECTRO CONCOURSE ASS2558 GRAND CONCOURSE 000000365002
20315900032009RBAY CON REALTY ASSOCI2306 GRAND CONCOURSE 000000340004
20316100182009RSTADIUM HOLDINGS LLC 2103 GRAND CONCOURSE 000027535002
20316200172008RBEKS LLC             2200 CRESTON AVENUE  000000990002
20316300172009RFAMA RLTY CORP       2276 CRESTON AVENUE  000000600004
"20316400462008RRR CONCOURSE REALTY, 2359 GRAND CONCOURSE 000000335002"
"20316400462009RRR CONCOURSE REALTY, 2359 GRAND CONCOURSE 000000247002"
20316500422008RBERMAN ASSOCIATES NEW2425 GRAND CONCOURSE 000000444004
20316500442008RTHE FIRST PARADISE TH2403 GRAND CONCOURSE 000006920004
20316500442009RTHE FIRST PARADISE TH2403 GRAND CONCOURSE 000006920004
20316600662008RCRESTON AVENUE CORP  2450 CRESTON AVENUE  000000355002
20316600742009RMANUFACTURERS HANOVER128 EAST FORDHAM ROAD000000575004
20316700552009RGLOVEBOX REALTY CORP 2565 GRAND CONCOURSE 000000784502
20316700602009RGLOVEBOX REALTY CORP 2559 GRAND CONCOURSE 000000384202
20316700622009RGLOVEBOX REALTY CORP 2555 GRAND CONCOURSE 000000384202
20316800112008R2600 CRESTON LLC     2600 CRESTON AVENUE  000000410002
20317200282009R2323 CRESTON LLC     2323 CRESTON AVENUE  000000455002
20317300272008R2442 MORRIS AVENUE AS2442 MORRIS AVENUE   000000214002
20318000092009R2160 WALTON LLC      2160 WALTON AVENUE   000000280002
20318400662009R2407 MORRIS ASSOCIATE2407 MORRIS AVENUE   000000365002
20318600732009R2251 WALTON LLC      WALTON AVENUE        000001459364
20318700032008RSEACO REALTY CORP.   2304 JEROME AVENUE   000000121004
20318700032009RSEACO REALTY CORP.   2304 JEROME AVENUE   000000274004
"20319200562008RCLAREMON REALTY,    .2111 JEROME AVENUE   000000267504"
20319500902008RTUCK-IT-AWAY ASSOCIAT2165 JEROME AVENUE   000000635004
20319500902009RTUCK-IT-AWAY ASSOCIAT2165 JEROME AVENUE   000000995004
"20319901182009R2375 JEROME AVENUE, L2375 JEROME AVENUE   000000695004"
20320000202009RNEW GOLD EQUITIES COR1 WEST FORDHAM ROAD  000005850004
20320300262008RGRAND WEST 190 LLC   30 WEST 190 STREET   000000585002
"20320500212009RRIVERDALE EQUITIES,LT40 WEST KINGSBRIDGE R000000375004"
20320900212008R2320 AQUEDUCT LLC    2320 AQUEDUCT AVENUE 000000298002
20321300142008RBRONX UNITED IN LEVER2432 UNIVERSITY AVENU000000404002
20321300302008R2477 GRAND AVE  CORP 2477 GRAND AVENUE    000000146002
20321300302009R2477 GRAND AVE  CORP 2477 GRAND AVENUE    000000156502
20321300512008REKREM REALTY CORP    2460 UNIVERSITY AVENU000011435002
"20321400862009RDEIMOS REALTY, LLC   2547 AQUEDUCT AVENUE 000000625002"
20321500012008RKINGDOM ASSOCIATES LL2600 UNIVERSITY AVENU000000380002
20321600482008R2015  UNIVERSITY PROP2015 DR M L KING JR B000000575002
20321902032008R2467 APARTMENTS LLC  2467 UNIVERSITY AVENU000002420002
20321902032009R2467 APARTMENTS LLC  2467 UNIVERSITY AVENU000002150002
"20321902122008RNEWSTART PROPERTIES,I111 FATHER ZEISER PLA000000507002"
20322500522008R135 REALTY ASSOCIATES135 WEST 183 STREET  000000265002
20322500942008R2300 INC             2300 LORING PLACE NOR000000680002
20323701332008R2575 SEDGWICK REALTY 2575 SEDGWICK AVENUE 000001440002
20323701402008R2559 SEDGWICK REALTY 2559 SEDGWICK AVENUE 000000585002
"20323900372009RASTAR REALTY CO.,    2698 BAILEY AVENUE   000000400002"
20324801362008R2701 WEBB AVE LLC    125 WEST KINGSBRIDGE 000003240002
20325000712009RDRAN VATAJ           2856 WEBB AVENUE     000001900002
20326100122009R238 STREET HOLDING   3050 BAILEY AVENUE   000000438554
20326600342009RPONCE DE LEON FEDERAL5560 BROADWAY        000000475004
20326701042009RC J WILLIAMS FUNERAL 5640 BROADWAY        000000297504
20327000492009R226 W. 238 REALTY COR226 WEST 238 STREET  000001870002
20327000542009R238 STREET HOLDING   204 WEST 238 STREET  000000306004
20327001132009RHEITNER WILLIAM E    140 WEST 238 STREET  000001165502
20327700452009RNERENBERG EDWARD L   2633 WEBSTER AVENUE  000000202004
20327800332009RNERENBERG EDWARD     2737 WEBSTER AVENUE  000000564004
20327800802009RMUSTAFA SIMNICA      2771 WEBSTER AVENUE  000000423504
20328400572008RTRIO 2870 MARION ASSO2870 MARION AVENUE   000000839502
20329200012008R2961-65 MARION LLC   2961 MARION AVENUE   000001200002
20329600362008RR & D MAJESTIC LLC   276 EAST 199 STREET  000000447502
20329600502008RALKOFF IRENE         2869 BAINBRIDGE AVENU000000715002
20330000442009R230 E. 196TH         230 EAST 196 STREET  000000068002
20330000562008R2707 BRIGGS REALTY   2707 BRIGGS AVENUE   000000385002
20330401192009RPARKASH 2842 LLC     2842 GRAND CONCOURSE 000001275002
20330401412008RANNAL MANAGEMENT CO L215 EAST 197 STREET  000000570002
20330700072008RELSTAN ASSOCIATES LLC3010 VALENTINE AVENUE000000510002
20330900422008R3042 LLC             3042 GRAND CONCOURSE 000000395002
"20330900502008RKIM, HUI CHA         242 EAST 204 STREET  000000806004"
"20330900502009RKIM, HUI CHA         242 EAST 204 STREET  000000954504"
20331000012009RFEINBERG BROS. AGENCY31 BEDFORD PARK BLVD 000001362004
"20331100012009RCOLEMAN, TONI        3127 GRAND CONCOURSE 000005475002"
"20331101462009RJRW REALTY, LLC      243 EAST 204 STREET  000000698504"
20331501242009R                     2746A CRESTON AVENUE 000000151401
20331501252009R                     2746B CRESTON AVENUE 000000151401
20331501262009R                     2748 CRESTON AVENUE  000000151401
20331800812009R2784 MORRIS ESTATES  2784 MORRIS AVENUE   000002550002
20331900982008R2905 GRAND CONCOURSE 2905 GRAND CONCOURSE 000000455002
"20332100162009RAMERICAN SWEATER CO.,3020 JEROME AVENUE   000000412004"
20332100672008RTRIANGLE REALTY - VIL3043 VILLA AVENUE    000001715002
20332100672009RTRIANGLE REALTY - VIL3043 VILLA AVENUE    000000955002
20332300502009RTRI STAR GARAGE SERVI3230 JEROME AVENUE   000000715004
20332400512009R3440 HOLDING         3440 GATES PLACE     000001115002
20332600012009R115 EAST MOSHOLU PARK115 E MOSHOLU PARKWAY000001755002
20332701192008R3467 DEKALB LLC      3467 DEKALB AVENUE   000001060002
20332801252009R3505 REALTY PARTNERS 3505 ROCHAMBEAU AVENU000000510002
20332801472008R3530 DEKALB AVENUE LL3530 DEKALB AVENUE   000000240002
20332801522009RJO LU REAL PROPERTIES3540 DEKALB AVENUE   000000250002
20332900482008R3566 JEROME AVE. CORP3566 JEROME AVENUE   000000349504
20332900482009R3566 JEROME AVE. CORP3566 JEROME AVENUE   000000291004
20332900922009R3604 JEROME LLC      3604 JEROME AVENUE   000001180004
20333100752009R3041 WEBSTER AVENUECO3041 WEBSTER AVENUE  000000370004
20333300272009RMCDONALDS USA LLC    3072 PERRY AVENUE    000000855004
20333501752009RSIMONE REALTY CO     3175 BAINBRIDGE AVENU000000510004
20333600592009RCORA REALTY CO LLC   3230 STEUBEN AVENUE  000000255002
20333800512008RSAMJUST REAL ESTATECO3317 BAINBRIDGE AVENU000000148004
20334302272008R3405 PUTNAM REALTY CO3405 RESERVOIR OVAL W000000520002
20334302272009R3405 PUTNAM REALTY CO3405 RESERVOIR OVAL W000000380002
20334500032009R204TH STREET PARTNERS313 EAST 204 STREET  000000102504
20334600342009RPGI REALTY CORP.     3203 HULL AVENUE     000000715002
20334800042008RSEAD REALTY          3312 PERRY AVENUE    000000251002
20334800042009RSEAD REALTY          3312 PERRY AVENUE    000000858502
20335000252008RPALUSHAJ EQUITIES LLC350 EAST 207 STREET  000003624002
20335200392008RBLDG BEACON BRONX LLC338 EAST GUN HILL ROA000000280004
20335300012009RZAP REALTY LLC       371 EAST 204 STREET  000001460002
20335500272009R364 INC./NEW YORK COR364 EAST 209 STREET  000000244502
"20335500612009RALY, NADIA           WEBSTER AVENUE       000011196934"
20335501122009R360-368 E. GUN HILL L360 EAST GUN HILL ROA000000410004
20335601462008R3525 DECATUR AVENUE L3525 DECATUR AVENUE  000002560002
20335601962008RGORELL INC           3551 WEBSTER AVENUE  000000175504
20335601962009RGORELL INC           3551 WEBSTER AVENUE  000000119504
20335602142009RGOLD ARCH LIMITED PAR3509 WEBSTER AVENUE  000000400004
20335700232009RCALLANAGH REALTY CORP3136 WEBSTER AVENUE  000000328004
20337400422008RGERARD OPERATING CORP281 EAST 233 STREET  000000250004
20337400422009RGERARD OPERATING CORP281 EAST 233 STREET  000000217504
20339800442009RJOHN P SHANAHAN      4380 VIREO AVENUE    000002595002
20348700292008RVISTAMAR COMPLEX LTD.261 ZEREGA AVENUE    000001123201
20348700292009RVISTAMAR COMPLEX LTD.261 ZEREGA AVENUE    000001123201
20348700342008RLB NORTH EAST DEVELOP300 ZEREGA AVENUE    000001499231
20348700342009RLB NORTH EAST DEVELOP300 ZEREGA AVENUE    000001544401
20349900622009R433 BOLTON AVE RLTYCP433 BOLTON AVENUE    000000330004
20351300012009RLB NORTH EAST DEVELOP410 ZEREGA AVENUE    000004493654
20351900012009RACADEMY GARDENS LLC  501 COMMONWEALTH AVEN000000860002
20351900052009RACADEMY GARDENS LLC  502 ROSEDALE AVENUE  000000860002
20351900122009RACADEMY GARDENS LLC  520 ROSEDALE AVENUE  000000860002
20351900202009RACADEMY GARDENS LLC  540 ROSEDALE AVENUE  000000860002
20351900302009RACADEMY GARDENS LLC  550 ROSEDALE AVENUE  000000860002
20351900342009RACADEMY GARDENS LLC  549 COMMONWEALTH AVEN000000665002
20351900422009RACADEMY GARDENS LLC  539 COMMONWEALTH AVEN000000860002
20351900492009RACADEMY GARDENS LLC  521 COMMONWEALTH AVEN000000860002
20361600012009RDREYER'S GRAND ICE CR701 ZEREGA AVENUE    000001145004
20362100012009RLH 1440 LLC          1400 STORY AVENUE    000009761104
20364600012009R935 BRONX RIVER AVENU935 BRONX RIVER AVENU000000560004
20364600672009RFERRO ENTERPRISES NY 955 BRONX RIVER AVENU000002205004
20373700332008RZEVRONE REALTY CORP  1150 COLGATE AVENUE  000000174002
"20373700382009RBROCO PROPERTIES,    1460 WESTCHESTER AVEN000000128504"
"20373800332008RNEWSTART PROPERTIES,I1184 EVERGREEN AVENUE000000090002"
20373900592009RNEW LINE REALTY IIICO1141 ELDER AVENUE    000000780002
20373900672008RMATSIA PROPERTIES COR1121 ELDER AVENUE    000000485002
20374000442009RR G ENTERPRISE INC   1530 WESTCHESTER AVEN000001125004
20374300502008RSTRATFORD EQUITIES LL1167 STRATFORD AVENUE000000180002
20374400012009ROMAR HOLDING CORP    1618 WESTCHESTER AVEN000008491504
"20374500052009RWAKEFIELD REALTY CO.,1636 WESTCHESTER AVEN000000520004"
20374800262009R1688 ROJAV REALTY LLC1214 FTELEY AVENUE   000001056384
20376200302008R1760-1762A WESCHESTER1760 WESTCHESTER AVEN000004255004
20376600482009RPARKCHESTER PROPERTIE1856 WESTCHESTER AVEN000000176504
20377600012008RCHERA BLDG PROPERTIES1591 WESTCHESTER AVEN000001405004
20377800102008RSTELLAR MORRISON LLC 1240 MORRISON AVENUE 000001220002
20379401152009REMIGRANT SAVINGS BANK74 HUGH J GRANT CIRCL000000675004
20379600142009RGOLDEN ARCH REALTY CO1980 WESTCHESTER AVEN000000290504
"20383200752009RYOUSUF, ROSHAN       2321 NEWBOLD AVENUE  000000009781"
20385900302009RDOCK STREET DEVELOPEMEAST TREMONT AVENUE  000001302004
20388400232009R1379 WHITE PLAINS RO 1379 WHITE PLAINS ROA000000286504
20390000312008R1462 REALTY ASSOCIATE1462 TAYLOR AVENUE   000000265502
20390000312009R1462 REALTY ASSOCIATE1462 TAYLOR AVENUE   000000150502
20390000392008R1425 THERIOT AVE LLC 1475 THIERIOT AVENUE 000009260002
20390100312009RARCHER COOPERATIVE IN1430 THIERIOT AVENUE 000010225002
20391000292009RCIMINELLO INDUSTRIALP1208 WYATT STREET    000003425004
20392000292008RMATSIA PROPERTIES COR1801 ARCHER STREET   000000545002
20392300092008R1500 REALTY ASSOCIATE1565 WHITE PLAINS ROA000000040002
20392300092009R1500 REALTY ASSOCIATE1565 WHITE PLAINS ROA000000270002
20392700012009RRUSI HOLDING CORP.   1860 EAST TREMONT AVE000000765004
20392700082009R1872 EAST TREMONT COR1872 EAST TREMONT AVE000000910004
20393201822008RTOMPKINS MANAGEMENT  1439 UNIONPORT ROAD  000000245004
20393201822009RTOMPKINS MANAGEMENT  1439 UNIONPORT ROAD  000000420004
"20393400012009RC PLUS REALTY,LLC    2135 WESTCHESTER AVEN000000835004"
20393700852008RPARKCHESTER PRESERVAT1900 ARCHER STREET   000003405004
20393700852009RPARKCHESTER PRESERVAT1900 ARCHER STREET   000001555004
20393710112009RPARKCHESTER PRESERVAT1409 METROPOLITAN AVE000052800004
20394300012008RPARKCHESTER PRESERVAT1500 UNIONPORT ROAD  000002345004
20394300012009RPARKCHESTER PRESERVAT1500 UNIONPORT ROAD  000008830004
20394302052008RPARKCHESTER MANAGEMEN2040 EAST TREMONT AVE000014875004
20394302052009RPARKCHESTER MANAGEMEN2040 EAST TREMONT AVE000023950004
20396300572009R2241 WESTCHESTER AVE 2241 WESTCHESTER AVEN000001905004
20398400352008RCASSATA JOSEPH       25 WESTCHESTER SQUARE000000530004
20398400352009RCASSATA JOSEPH       25 WESTCHESTER SQUARE000000455004
20400100222009R2546 EAST TREMONT REA2506 EAST TREMONT AVE000001516504
20404202542009RPARKCHESTER-TREMONTPA2015 EAST TREMONT AVE000002563504
"20404500292009RBAN REALTY,          1701 BRONXDALE AVENUE000001345004"
20405000132009RKARDIA 192 REALTY COR1816 WHITE PLAINS ROA000008790002
20405300052008R775-777 MORRIS PARKRE775 MORRIS PARK AVENU000000490004
20405300052009R775-777 MORRIS PARKRE775 MORRIS PARK AVENU000000355004
20406800282008R2517 EAST TREMONT REA2517 EAST TREMONT AVE000001127004
"20407001622009RCANDELA REALTY, INC. 1539 WILLIAMSBRIDGE R000000755004"
20407001662009RCANDELA BROS REALTY I1529 WILLIAMSBRIDGE R000009095004
20407100012008R80 WEST SQUARE ASSOCI80 WESTCHESTER SQUARE000000236504
20407500102009RBRONXWOOD HOME FOR TH2610 ST RAYMOND'S AVE000001533004
20407600012009RJ P MORGAN CHASE & COEAST TREMONT AVENUE  000000188134
20407600092009RJ P MORGAN CHASE & COEAST TREMONT AVENUE  000000387004
"20407700062009RPEP BOYS-MANNY, MOE& 2633 EAST TREMONT AVE000001555004"
20407900012009R1515 WILLIAMSBRIDGE A1501 WILLIAMSBRIDGE R000000690004
20408000342009RC.L.W. REALTY CORP.  ST RAYMOND AVENUE    000000653134
20408500962009R1733 EASTCHESTER LLC 1733 EASTCHESTER ROAD000007450004
"20409400312009RBAN REALTY,          1720 BRONXDALE AVENUE000000934084"
20411600082009RHOMEFRONT EAST LLC   1194 MORRIS PARK AVEN000000665004
20412400622009RJONATHAN TRACIS      1852 FOWLER AVENUE   000000128202A
"20414100072008RDE CANDIDO, PHILIP F.1468 BLONDELL AVENUE 000000399504"
"20414100072009RDE CANDIDO, PHILIP F.1468 BLONDELL AVENUE 000000324504"
20415200032009R2801 PROPERTY CORP   2809 MIDDLETOWN ROAD 000000311504
20416310042009RGALVIN ELLEN T       1725 EDISON AVENUE   000000018962
20416500032009RLUC REALTY INC       2913 MIDDLETOWN ROAD 000000077002
20419300572009REMIL MOSBACHER REAL E2885 BUHRE AVENUE    000000234004
20419500012009RAMOCO OIL COMPANY    3065 WESTCHESTER AVEN000000219504
20419600052009R3043 BUHRE PROPERTIES3042 WESTCHESTER AVEN000000637504
20420000462009RFGP WEST STREET LLC  WILLIAMSBRIDGE ROAD  000000680004
20420900182009R1894 EAST LLC        1894 EASTCHESTER ROAD000000850004
20422000012009RCONSTANTINE DEVELOPME2050 EASTCHESTER ROAD000001695004
20423500352009R2625 S & M REALTY LLCWILKINSON AVENUE     000000710494
20425100112009RPELHAM OWNERS CORP   1874 PELHAM PARKWAY S000001130002
20426300052009RPELHAM PINE PROPERTIE1907 BRONXDALE AVENUE000000235004
20426300192009RPELHAM PINE PROPERTIEBRONXDALE AVENUE     000000309504
20427300202009RNORTHSIDE SAVINGS BAN1941 WILLIAMSBRIDGE R000000123504
"20428600042008RBRADY ASSOCIATES,    2070 BRONX PARK EAST 000003710002"
20428600402009RRIVERDALE EQUITIES LT2111 WHITE PLAINS ROA000000400004
20428600482009RRIVERDALE EQUITIES LTMARAN PLACE          000000381384
20429100142008RWALLACE HOLLAND OWNER2105 WALLACE AVENUE  000003785002
20430600052009RWILLIAMSBRIDGE HOLDIN2055 WILLIAMSBRIDGE R000000502004
20430600142008RWILLIAMSBRIDGE HOLDIN2021 WILLIAMSBRIDGE R000000170004
20430600152009RWILLIAMSBRIDGE HOLDIN2015 WILLIAMSBRIDGE R000001000004
20430600162008RWILLIAMSBRIDGE HOLDIN2009 WILLIAMSBRIDGE R000000173504
20430600162009RWILLIAMSBRIDGE HOLDIN2009 WILLIAMSBRIDGE R000001000004
20430710042009 GERARDO CAVALLO      1144 LYDIG AVENUE    000000125224
"20431100122009RSPAHIJA, LIRIJE      2073 HERING AVENUE   000000017651"
20432000012009RMARIO BONAVITA       2140 HOLLAND AVENUE  000001845004
"20434011502009RBARING HOLDINGS,     2385 BARKER AVENUE   000000028312"
20434100012008RJAMES ARROYO         665 THWAITES PLACE   000001130002
20434100012009RJAMES ARROYO         665 THWAITES PLACE   000001570002
20434300012009R2215-75 CRUGER APTS  2215 CRUGER AVENUE   000002960002
"20434300362009RSCHAINBERG, MARION   CRUGER AVENUE        000001033614"
20434400382008RHOLLAND APARTMENTS IN2241 HOLLAND AVENUE  000000705002
20434400382009RHOLLAND APARTMENTS IN2241 HOLLAND AVENUE  000000685002
20436500052009RNEW YORK EYE SURGERY 1101 PELHAM PARKWAY N000000675004
20437200012009R1235 PELHAM PARKWAY R2211 THROOP AVENUE   000006005004
"20437500192009RPALIOTTA, MARY       1228 WARING AVENUE   000000020521"
20441600012009RROWLAND OPERATING COR2316 BRUNER AVENUE   000008060004
20443000372008RWHITE POST ASSOCIATESCRUGER AVENUE        000000236504
20443000372009RWHITE POST ASSOCIATESCRUGER AVENUE        000000236504
20443000412008RWHITE POST ASSOCIATESBOSTON ROAD          000000159504
20443000412009RWHITE POST ASSOCIATESBOSTON ROAD          000000159504
20443000422008RWHITE POST ASSOCIATES2424 WHITE PLAINS ROA000010230004
20443000422009RWHITE POST ASSOCIATES2424 WHITE PLAINS ROA000008835004
20443300012009RTRI CRUGER REALTY LLC2507 CRUGER AVENUE   000001205002
20445000372009RA-J ALLERTON REALTY  1000 ALLERTON AVENUE 000000600004
"20450404122009RFC WARING ASSOCIATES,1806 EAST GUN HILL RO000017000004"
20450800722008RSANTOMERO III CAMILLO2801 WHITE PLAINS ROA000001260004
"20451300272009RDPA 2766 BARNES, LLC 2766 BARNES AVENUE   000000680002"
20451600052009RFARENGA SALVATORE A  2709 WILLIAMSBRIDGE R000000050004
"20453900182009RGUNHILL PROPERTIES, LEAST GUN HILL ROAD   000000175784"
"20454300212008RDANTE ASSOCIATES CO.,600 BURKE AVENUE     000000385002"
"20454300212009RDANTE ASSOCIATES CO.,600 BURKE AVENUE     000000375002"
20454900012008RCHARLES AXELROD ASSOC2911 BARNES AVENUE   000005300002
20454900012009RCHARLES AXELROD ASSOC2911 BARNES AVENUE   000000985002
20454900062008RCHARLES AXELROD ASSOC2910 WALLACE AVENUE  000005300002
20454900062009RCHARLES AXELROD ASSOC2910 WALLACE AVENUE  000000985002
20455000072008RMPS REALTY GROUP CORP2900 BARNES AVENUE   000002350002
20455000122009RFARBAND HOUSING CORP 2922 BARNES AVENUE   000002985002
20455500262009R2955 BOSTON ROAD REAL2955 BOSTON ROAD     000001312504
20457000252009RR D SIGNORE INC      744 BURKE AVENUE     000001840004
20457100252008R3050 WALLACE AVE INC 3050 WALLACE AVENUE  000005880002
20457900232009RLANDAU III LLC       3066 BOSTON ROAD     000000305004
20458900482008RM. SOPHER & CO.      1316 EAST GUN HILL RO000000453004
20459300162008RTUCK IT AWAY INC.    3256 BRONX BOULEVARD 000001750004
20459300162009RTUCK IT AWAY INC.    3256 BRONX BOULEVARD 000001525004
"20460100152009RNATION, DANNY        740 BARTHOLDI STREET 000000042401"
"20461500362009RWEINHOUSE, ELEANOR   1124 EAST GUN HILL RO000000380004"
20464100102009R3534 BRONX BLVD LLC  3534 BRONX BOULEVARD 000000495002
20465100562008R3765 WHITE PLAINS RD 3763 WHITE PLAINS ROA000001341504
20465300762009RCORONA N.H. REALTY CO3845 CARPENTER AVENUE000003755004
20467900732009RSAKO MANAGEMENT LLC  864 EAST 221 STREET  000000228002
20470600012009RFIX REALTY CORP.     3325 BOSTON ROAD     000000515504
20470900012009RWILSON ESTATES LLC   1181 EAST 214 STREET 000000285002
20472300282009RCHAPEL HILL CORP.    3511 BOSTON ROAD     000000151504
20472400282008RWARAL REALTY CORP    3533 BOSTON ROAD     000000047004
20472400282009RWARAL REALTY CORP    3533 BOSTON ROAD     000000092004
20472400712009RBOSTON ROAD MANAGEME 3548 BOSTON ROAD     000000703504
20473200012009RAUTOZONE DEVELOPMENTC3304 BOSTON ROAD     000001145004
"20473300012008R3350 BOSTON ROAD, L.L3354 BOSTON ROAD     000000267004"
"20475400012009RBAY CHESTER MOTEL,INC1440 EAST 222 STREET 000002815004"
20475800552009R3240 GRACE AVE CORP  3240 GRACE AVENUE    000001325004
20476201022009RANTHONY WRIGHT LIVING1435 EAST GUN HILL RO000000399004
20476600392009R3004-4010 EASTCHESTER3006 EASTCHESTER ROAD000000938504
20480500012009R1880 BARTOW AVENUE   1880 BARTOW AVENUE   000002730004
20482500802008REAST 224TH STREET REA680 EAST 224 STREET  000000525002
20483100182008RPALUSHAJ PROPERTIES L685 EAST 228 STREET  000003972002
"20483100482008RSHACHNOW, RUTH M     655 EAST 228 STREET  000000705002"
20483500062009RBONAVITA MARIO       4171 WHITE PLAINS ROA000000135004
20483600482009RGRACIOUS LIVING TRUST3914 WHITE PLAINS ROA000000460002A
20483700412009REMIL MOSBACHER REALES3926 WHITE PLAINS ROA000000216504
20483700432009R3938 REALTY ASSOCIATE3940 WHITE PLAINS ROA000001380004
20483900482009RCAI JUAN HUANG       3982 WHITE PLAINS ROA000000045004
20484000422009RLINDO JOHNSON FAMILY 4000 WHITE PLAINS ROA000000154004
20484500112009RWAKEFIELD COOPERATIVE745 EAST 231 STREET  000006435002
20484600422009RBALI 9 BUILDING ASSOC4174 WHITE PLAINS ROA000001535004
20485700412009R830 E 233RD ST CORP  834 EAST 233 STREET  000000416404
20488700142009RKFC NATIONAL MANAGEME3491 BAYCHESTER AVENU000001452504
20488700622009RBLS AUTOMOTIVE REPAIR3429 BAYCHESTER AVENU000000138044
20488900092008RZEEV & R SCHNITZER   3631 BOSTON ROAD     000000347004
20492201012009RR M J MOTEL CORP     2101 NEEDHAM AVENUE  000001660004
20494900952009RA&F LAMURA TRUST     3630 ROMBOUTS AVENUE 000001281004
20495200242008RACHILLE FRANCIS PROP 2281 LIGHT STREET    000000484004
20495301222009RB A S EQUITIES LLC   4141 BOSTON ROAD     000000774504
20495301242009RB A S EQUITIES LLC   4139 BOSTON ROAD     000000437504
20495301352009RGEORGE LES           4105 BOSTON ROAD     000000294004
20499400412008RAVANTI REALTY CORP   4206 CARPENTER AVENUE000000116002
20499400412009RAVANTI REALTY CORP   4206 CARPENTER AVENUE000000345502
20499500742008R680 EAST 235TH STREET680 EAST 235 STREET  000000600002
"20499700362009RZARGAR, JANINE A.    741 EAST 233 STREET  000000610004"
20499700602008RM. SOPHER & CO.      4206 WHITE PLAINS ROA000000155504
20499800662008RLYNAIR               710 EAST 235 STREET  000005585002
"20502300292008R4200 BAYCHESTER AVE.,4200 BAYCHESTER AVENU000001363504"
"20502300292009R4200 BAYCHESTER AVE.,4200 BAYCHESTER AVENU000000765004"
20503500342009RNEREID AVENUE ASSOCIA4377 BRONX BOULEVARD 000002275004
20503900482009R4314 RICHARDSON REALT4314 RICHARDSON AVENU000000092302B
20503900522009R4322 RICHARDSON REALT4322 RICHARDSON AVENU000000089312A
"20504200452009RRIVERDALE EQUITIES,LT4379 WHITE PLAINS ROA000000261004"
20508100662009R4563 WHITE PLAINS RDR4563 WHITE PLAINS ROA000001028502
20509000192009R4524 BARNES REALTY   4524 BARNES AVENUE   000000559002
"20510600512008RGUN HILL MANAGEMENT,I660 EAST 242 STREET  000001035002"
20524500202009RJOSEPH DEDONA F/IRR T3319 DE LAVALL AVENUE000000162504
"20524600102009RMERR-TILL, LLC       3327 MERRITT AVENUE  000000198004"
20525900162008RMARK TERRACE OWNERS C3410 DE REIMER AVENUE000001170002
20525900162009RMARK TERRACE OWNERS C3410 DE REIMER AVENUE000009000002
"20526300592008RB.P.R. 4000, INC.    4000 BOSTON ROAD     000001730004"
20527300102009RMONACO CHARLES       4038 BOSTON ROAD     000000055204
20527600012008RCONNOR LAND CP       2291 ENGLAND THRUWAY 000000910004
20527600012009RCONNOR LAND CP       2291 ENGLAND THRUWAY 000000910004
20528100012008RFERRO ENTERPRISES NY 4100 BOSTON ROAD     000000138504
"20528100052009RCAPASSO, PASQUALE    3550 CONNER STREET   000001255004"
20537100482009R3040 E. TREMONT AVE. 3036 EAST TREMONT AVE000001805004
20538500652009RZULETTE REALTY CORP  2811 ZULETTE AVENUE  000000380004
20539600012008R1544 GILLESPIE LLC   1544 GILLESPIE AVENUE000000589502
20539600012009R1544 GILLESPIE LLC   1544 GILLESPIE AVENUE000000166002
20541701282009RAUSANIO CARMELA      1514 BAY VIEW AVENUE 000000023561
20543500012008RKNICKERBOCKER FEDERAL3811 EAST TREMONT AVE000000300004
20554100082008RCIMINELLO PROPERTY AS999 BRUSH AVENUE     000000344004
"20554100142009RILICH, DANIEL        BRUSH AVENUE         000001840004"
20554200412009RCIMINELLO PROPERTY AS2550 BRUCKNER BOULEVA000009965004
20554301052009RRONA WOLDENBERG      3680 EAST TREMONT AVE000004540004
20554301562008R3716-42 ASSOC LLC    3716 EAST TREMONT AVE000000190004
20554301562009R3716-42 ASSOC LLC    3716 EAST TREMONT AVE000000325004
20556000772009RCIMINELLO PROPERTY AS681 BRUSH AVENUE     000002810004
"20557601102008RTREMONT REALTY, LLC. 4042 EAST TREMONT AVE000000520004"
"20557601102009RTREMONT REALTY, LLC. 4042 EAST TREMONT AVE000000195004"
20560410012008RRICHARD FEVANG       2716 SCHURZ AVENUE   000000020082
"20560701522009RABIERA, DEXTER       203 ROBINSON AVENUE  000000022201"
"20561000062009R500 BRUSH, LLC       500 BRUSH AVENUE     000001925004"
20562502262009R75 CITY ISLAND AVE RL75 CITY ISLAND AVENUE000000226004
20563301132009RSCAVELLO GABRIEL     385 CITY ISLAND AVENU000008945004
20563301222009RCITY OF NEW YORK     365 CITY ISLAND AVENU000000256504
20563501642009RCOMPREHENSIVE TREND T583 CITY ISLAND AVENU000000446504
20563800012009RSAMMY'S FISHBOX REALT40 CITY ISLAND AVENUE000000313004
20563800062009RSAMMY'S FISHBOX REALT48 CITY ISLAND AVENUE000000077844
"20564302352009RCITY ISLAND ESTATES, 226 FORDHAM PLACE    000002820004"
20565502212009RPACAP COMPANY INC    4240 BOSTON ROAD     000002440004
"20570801042008RFUREY, BARBARA LEE/TR253 WEST 231 STREET  000001000004"
20572510012008RHARVEY I ROSEN       2600 HENRY HUDSON PKW000000014762
20574400482008R750 KAPPOCK APTS CORP750 KAPPOCK STREET   000000860002
20574400482009R750 KAPPOCK APTS CORP750 KAPPOCK STREET   000000905002
20574500012008RRIVER TERRACE APTS IN2621 PALISADE AVENUE 000000985002
20574500012009RRIVER TERRACE APTS IN2621 PALISADE AVENUE 000001705002
20575500412009RKAY REALTY CO        5673 BROADWAY        000006710004
"20577605392009RL & W HOLDINGS, LTD. 5925 BROADWAY        000002925004"
"20578010022008RJEREZ, MILDRED L     445 WEST 240 STREET  000000006852"
"20578010022009RJEREZ, MILDRED L     445 WEST 240 STREET  000000012832"
20579000012009RRCNR REALTY LLC      3220 HENRY HUDSON PKW000007500004
20579304782008RMELVIN FRIEDLAND     551 WEST 235 STREET  000000385004
20579304782009RMELVIN FRIEDLAND     551 WEST 235 STREET  000001015004
20579601292009R3660 OXFORD AVE ASSOC3660 OXFORD AVENUE   000001895002
"20585710012008RJOSEPH, CECIL P      5775 MOSHOLU AVENUE  000000043442"
"20586301552009RDEPAUR, LEONARD      5641 DELAFIELD AVENUE000000012001"
20588713252009RMARILYN SOPHER/TRUSTE6132 RIVERDALE AVENUE000000160004
"20588713272009RM. SOPHER & CO, LLC  6142 RIVERDALE AVENUE000000074004"
20590901102009RRIVERVIEW REALTY CO  595 WEST 239 STREET  000002065004
20590908252009RBRIAR HILL REALTY LLC630 WEST 246 STREET  000004400002
20592005102008R679 OWNERS CORP      679 WEST 239 STREET  000000880002
20592303562009RRETTER MARGARET E    4635 DOUGLAS AVENUE  000000173021
"20593904282009RHODGSON, JULIA       5271 INDEPENDENCE AVE000000106921"
27002240142009RVERIZON NEW YORK INC VERIZON NEW YORK     000045163753
27234100022008RAT&T COMMUNICATIONS  AT&T COMMUNICATIONS  000003590004
27234100022009RAT&T COMMUNICATIONS  AT&T COMMUNICATIONS  000003590004
